{
  "contractName": "AssetManager",
  "abi": [
    {
      "inputs": [],
      "stateMutability": "nonpayable",
      "type": "constructor"
    },
    {
      "anonymous": false,
      "inputs": [
        {
          "indexed": false,
          "internalType": "address",
          "name": "sender",
          "type": "address"
        },
        {
          "indexed": false,
          "internalType": "string",
          "name": "name",
          "type": "string"
        }
      ],
      "name": "AssetAdded",
      "type": "event"
    },
    {
      "anonymous": false,
      "inputs": [
        {
          "indexed": false,
          "internalType": "address",
          "name": "sender",
          "type": "address"
        },
        {
          "indexed": false,
          "internalType": "address",
          "name": "from",
          "type": "address"
        },
        {
          "indexed": false,
          "internalType": "address",
          "name": "to",
          "type": "address"
        },
        {
          "indexed": false,
          "internalType": "string",
          "name": "name",
          "type": "string"
        }
      ],
      "name": "AssetTransfered",
      "type": "event"
    },
    {
      "inputs": [],
      "name": "manager",
      "outputs": [
        {
          "internalType": "address",
          "name": "",
          "type": "address"
        }
      ],
      "stateMutability": "view",
      "type": "function"
    },
    {
      "inputs": [
        {
          "internalType": "string",
          "name": "_name",
          "type": "string"
        },
        {
          "internalType": "uint256",
          "name": "_price",
          "type": "uint256"
        },
        {
          "internalType": "address",
          "name": "_owner",
          "type": "address"
        }
      ],
      "name": "addAsset",
      "outputs": [],
      "stateMutability": "nonpayable",
      "type": "function"
    },
    {
      "inputs": [
        {
          "internalType": "string",
          "name": "_name",
          "type": "string"
        }
      ],
      "name": "getOwner",
      "outputs": [
        {
          "internalType": "address",
          "name": "",
          "type": "address"
        }
      ],
      "stateMutability": "view",
      "type": "function"
    },
    {
      "inputs": [
        {
          "internalType": "address",
          "name": "from",
          "type": "address"
        },
        {
          "internalType": "address",
          "name": "to",
          "type": "address"
        },
        {
          "internalType": "string",
          "name": "_name",
          "type": "string"
        }
      ],
      "name": "transferAsset",
      "outputs": [],
      "stateMutability": "nonpayable",
      "type": "function"
    }
  ],
  "bytecode": "0x608060405234801561001057600080fd5b50336000806101000a81548173ffffffffffffffffffffffffffffffffffffffff021916908373ffffffffffffffffffffffffffffffffffffffff16021790555061117a806100606000396000f3fe608060405234801561001057600080fd5b506004361061004c5760003560e01c8063481c6a75146100515780634aaf4a121461006f5780636ef4d28c1461009f578063893c7ade146100bb575b600080fd5b6100596100d7565b6040516100669190610994565b60405180910390f35b61008960048036038101906100849190610b09565b6100fb565b6040516100969190610994565b60405180910390f35b6100b960048036038101906100b49190610bb4565b6102ab565b005b6100d560048036038101906100d09190610c23565b6104ee565b005b60008054906101000a900473ffffffffffffffffffffffffffffffffffffffff1681565b6000808260405160200161010f9190610d0c565b6040516020818303038152906040528051906020012060001c90506000600160008381526020019081526020016000206040518060800160405290816000820160009054906101000a900473ffffffffffffffffffffffffffffffffffffffff1673ffffffffffffffffffffffffffffffffffffffff1673ffffffffffffffffffffffffffffffffffffffff1681526020016001820180546101b090610d52565b80601f01602080910402602001604051908101604052809291908181526020018280546101dc90610d52565b80156102295780601f106101fe57610100808354040283529160200191610229565b820191906000526020600020905b81548152906001019060200180831161020c57829003601f168201915b50505050508152602001600282015481526020016003820160009054906101000a900460ff1615151515815250509050806060015161029d576040517f08c379a000000000000000000000000000000000000000000000000000000000815260040161029490610de1565b60405180910390fd5b806000015192505050919050565b60008054906101000a900473ffffffffffffffffffffffffffffffffffffffff1673ffffffffffffffffffffffffffffffffffffffff163373ffffffffffffffffffffffffffffffffffffffff1614610339576040517f08c379a000000000000000000000000000000000000000000000000000000000815260040161033090610e73565b60405180910390fd5b60008360405160200161034c9190610d0c565b6040516020818303038152906040528051906020012060001c90506001600082815260200190815260200160002060030160009054906101000a900460ff16156103cb576040517f08c379a00000000000000000000000000000000000000000000000000000000081526004016103c290610edf565b60405180910390fd5b600060405180608001604052808473ffffffffffffffffffffffffffffffffffffffff168152602001868152602001858152602001600115158152509050806001600084815260200190815260200160002060008201518160000160006101000a81548173ffffffffffffffffffffffffffffffffffffffff021916908373ffffffffffffffffffffffffffffffffffffffff16021790555060208201518160010190805190602001906104809291906108b0565b506040820151816002015560608201518160030160006101000a81548160ff0219169083151502179055509050507ffd288a46d080f2a24ab4d47d4231a7ae3a4538d57a6c1c9afe6807e6c949f6ea33866040516104df929190610f38565b60405180910390a15050505050565b60008054906101000a900473ffffffffffffffffffffffffffffffffffffffff1673ffffffffffffffffffffffffffffffffffffffff163373ffffffffffffffffffffffffffffffffffffffff161461057c576040517f08c379a000000000000000000000000000000000000000000000000000000000815260040161057390610fda565b60405180910390fd5b60008160405160200161058f9190610d0c565b6040516020818303038152906040528051906020012060001c90506000600160008381526020019081526020016000206040518060800160405290816000820160009054906101000a900473ffffffffffffffffffffffffffffffffffffffff1673ffffffffffffffffffffffffffffffffffffffff1673ffffffffffffffffffffffffffffffffffffffff16815260200160018201805461063090610d52565b80601f016020809104026020016040519081016040528092919081815260200182805461065c90610d52565b80156106a95780601f1061067e576101008083540402835291602001916106a9565b820191906000526020600020905b81548152906001019060200180831161068c57829003601f168201915b50505050508152602001600282015481526020016003820160009054906101000a900460ff1615151515815250509050806060015161071d576040517f08c379a000000000000000000000000000000000000000000000000000000000815260040161071490611046565b60405180910390fd5b8473ffffffffffffffffffffffffffffffffffffffff16816000015173ffffffffffffffffffffffffffffffffffffffff161461078f576040517f08c379a0000000000000000000000000000000000000000000000000000000008152600401610786906110d8565b60405180910390fd5b83816000019073ffffffffffffffffffffffffffffffffffffffff16908173ffffffffffffffffffffffffffffffffffffffff1681525050806001600084815260200190815260200160002060008201518160000160006101000a81548173ffffffffffffffffffffffffffffffffffffffff021916908373ffffffffffffffffffffffffffffffffffffffff160217905550602082015181600101908051906020019061083e9291906108b0565b506040820151816002015560608201518160030160006101000a81548160ff0219169083151502179055509050507f800d876eac12569fec14bd54ab9a3e37f34e2fabf6ed5bc877670de6522442e4338686866040516108a194939291906110f8565b60405180910390a15050505050565b8280546108bc90610d52565b90600052602060002090601f0160209004810192826108de5760008555610925565b82601f106108f757805160ff1916838001178555610925565b82800160010185558215610925579182015b82811115610924578251825591602001919060010190610909565b5b5090506109329190610936565b5090565b5b8082111561094f576000816000905550600101610937565b5090565b600073ffffffffffffffffffffffffffffffffffffffff82169050919050565b600061097e82610953565b9050919050565b61098e81610973565b82525050565b60006020820190506109a96000830184610985565b92915050565b6000604051905090565b600080fd5b600080fd5b600080fd5b600080fd5b6000601f19601f8301169050919050565b7f4e487b7100000000000000000000000000000000000000000000000000000000600052604160045260246000fd5b610a16826109cd565b810181811067ffffffffffffffff82111715610a3557610a346109de565b5b80604052505050565b6000610a486109af565b9050610a548282610a0d565b919050565b600067ffffffffffffffff821115610a7457610a736109de565b5b610a7d826109cd565b9050602081019050919050565b82818337600083830152505050565b6000610aac610aa784610a59565b610a3e565b905082815260208101848484011115610ac857610ac76109c8565b5b610ad3848285610a8a565b509392505050565b600082601f830112610af057610aef6109c3565b5b8135610b00848260208601610a99565b91505092915050565b600060208284031215610b1f57610b1e6109b9565b5b600082013567ffffffffffffffff811115610b3d57610b3c6109be565b5b610b4984828501610adb565b91505092915050565b6000819050919050565b610b6581610b52565b8114610b7057600080fd5b50565b600081359050610b8281610b5c565b92915050565b610b9181610973565b8114610b9c57600080fd5b50565b600081359050610bae81610b88565b92915050565b600080600060608486031215610bcd57610bcc6109b9565b5b600084013567ffffffffffffffff811115610beb57610bea6109be565b5b610bf786828701610adb565b9350506020610c0886828701610b73565b9250506040610c1986828701610b9f565b9150509250925092565b600080600060608486031215610c3c57610c3b6109b9565b5b6000610c4a86828701610b9f565b9350506020610c5b86828701610b9f565b925050604084013567ffffffffffffffff811115610c7c57610c7b6109be565b5b610c8886828701610adb565b9150509250925092565b600081519050919050565b600081905092915050565b60005b83811015610cc6578082015181840152602081019050610cab565b83811115610cd5576000848401525b50505050565b6000610ce682610c92565b610cf08185610c9d565b9350610d00818560208601610ca8565b80840191505092915050565b6000610d188284610cdb565b915081905092915050565b7f4e487b7100000000000000000000000000000000000000000000000000000000600052602260045260246000fd5b60006002820490506001821680610d6a57607f821691505b60208210811415610d7e57610d7d610d23565b5b50919050565b600082825260208201905092915050565b7f417373657420646f6573206e6f74206578697374000000000000000000000000600082015250565b6000610dcb601483610d84565b9150610dd682610d95565b602082019050919050565b60006020820190508181036000830152610dfa81610dbe565b9050919050565b7f4f6e6c7920746865204173736574204d61616e6765722063616e20616464206160008201527f7373657473000000000000000000000000000000000000000000000000000000602082015250565b6000610e5d602583610d84565b9150610e6882610e01565b604082019050919050565b60006020820190508181036000830152610e8c81610e50565b9050919050565b7f4173736574206e616d6520616c72656164792061646465640000000000000000600082015250565b6000610ec9601883610d84565b9150610ed482610e93565b602082019050919050565b60006020820190508181036000830152610ef881610ebc565b9050919050565b6000610f0a82610c92565b610f148185610d84565b9350610f24818560208601610ca8565b610f2d816109cd565b840191505092915050565b6000604082019050610f4d6000830185610985565b8181036020830152610f5f8184610eff565b90509392505050565b7f4f6e6c79207468652041737365744d616e616765722063616e207472616e736660008201527f6572206173736574730000000000000000000000000000000000000000000000602082015250565b6000610fc4602983610d84565b9150610fcf82610f68565b604082019050919050565b60006020820190508181036000830152610ff381610fb7565b9050919050565b7f4173736574206d75737420657869737400000000000000000000000000000000600082015250565b6000611030601083610d84565b915061103b82610ffa565b602082019050919050565b6000602082019050818103600083015261105f81611023565b9050919050565b7f4173736574206d757374206265206f776e65722062792066726f6d206164647260008201527f6573730000000000000000000000000000000000000000000000000000000000602082015250565b60006110c2602383610d84565b91506110cd82611066565b604082019050919050565b600060208201905081810360008301526110f1816110b5565b9050919050565b600060808201905061110d6000830187610985565b61111a6020830186610985565b6111276040830185610985565b81810360608301526111398184610eff565b90509594505050505056fea26469706673582212206b486c9e62dbef6ed96a95c7d0236265276b40677d4915eae76f2c1ef9d7dac764736f6c634300080b0033",
  "immutableReferences": {},
  "source": "pragma solidity ^0.8.11;\n\ncontract AssetManager {\n    address public manager;\n\n    struct Asset {\n        address owner;\n        string name;\n        uint256 price;\n        bool exists;\n    }\n\n    mapping(uint256 => Asset) private assets;\n\n    event AssetAdded(address sender, string name);\n    event AssetTransfered(\n        address sender,\n        address from,\n        address to,\n        string name\n    );\n\n    constructor() public {\n        manager = msg.sender;\n    }\n\n    function addAsset(\n        string memory _name,\n        uint256 _price,\n        address _owner\n    ) public {\n        require(msg.sender == manager, \"Only the Asset Maanger can add assets\");\n        uint256 assetId = uint256(keccak256(abi.encodePacked(_name)));\n        require(!assets[assetId].exists, \"Asset name already added\");\n\n        Asset memory a = Asset({\n            owner: _owner,\n            name: _name,\n            price: _price,\n            exists: true\n        });\n\n        assets[assetId] = a;\n\n        emit AssetAdded(msg.sender, _name);\n    }\n\n    function getOwner(string memory _name) public view returns (address) {\n        uint256 assetId = uint256(keccak256(abi.encodePacked(_name)));\n        Asset memory a = assets[assetId];\n        require(a.exists, \"Asset does not exist\");\n        return a.owner;\n    }\n\n    function transferAsset(\n        address from,\n        address to,\n        string memory _name\n    ) public {\n        require(\n            msg.sender == manager,\n            \"Only the AssetManager can transfer assets\"\n        );\n        uint256 assetId = uint256(keccak256(abi.encodePacked(_name)));\n        Asset memory a = assets[assetId];\n\n        require(a.exists, \"Asset must exist\");\n        require(a.owner == from, \"Asset must be owner by from address\");\n\n        a.owner = to;\n        assets[assetId] = a;\n\n        emit AssetTransfered(msg.sender, from, to, _name);\n    }\n}\n",
  "sourcePath": "/Volumes/SSD EXTERNO/Luby/Blockchain/TaskManager/contracts/AssetManager.sol",
  "compiler": {
    "name": "solc",
    "version": "0.8.11+commit.d7f03943.Emscripten.clang"
  },
  "schemaVersion": "3.4.4",
  "updatedAt": "2022-02-14T01:08:34.320Z",
  "devdoc": {
    "kind": "dev",
    "methods": {},
    "version": 1
  },
  "userdoc": {
    "kind": "user",
    "methods": {},
    "version": 1
  }
}