{
  "contractName": "Bank",
  "abi": [
    {
      "inputs": [],
      "stateMutability": "nonpayable",
      "type": "constructor"
    },
    {
      "anonymous": false,
      "inputs": [
        {
          "indexed": false,
          "internalType": "address",
          "name": "from",
          "type": "address"
        },
        {
          "indexed": false,
          "internalType": "address",
          "name": "to",
          "type": "address"
        },
        {
          "indexed": false,
          "internalType": "uint256",
          "name": "amount",
          "type": "uint256"
        }
      ],
      "name": "Sent",
      "type": "event"
    },
    {
      "inputs": [],
      "name": "minter",
      "outputs": [
        {
          "internalType": "address",
          "name": "",
          "type": "address"
        }
      ],
      "stateMutability": "view",
      "type": "function"
    },
    {
      "inputs": [
        {
          "internalType": "address",
          "name": "receiver",
          "type": "address"
        },
        {
          "internalType": "uint256",
          "name": "amount",
          "type": "uint256"
        }
      ],
      "name": "mint",
      "outputs": [],
      "stateMutability": "nonpayable",
      "type": "function"
    },
    {
      "inputs": [
        {
          "internalType": "address",
          "name": "receiver",
          "type": "address"
        },
        {
          "internalType": "address",
          "name": "sender",
          "type": "address"
        },
        {
          "internalType": "uint256",
          "name": "amount",
          "type": "uint256"
        }
      ],
      "name": "sendMoney",
      "outputs": [],
      "stateMutability": "nonpayable",
      "type": "function"
    },
    {
      "inputs": [
        {
          "internalType": "address",
          "name": "account",
          "type": "address"
        }
      ],
      "name": "getBalance",
      "outputs": [
        {
          "internalType": "uint256",
          "name": "",
          "type": "uint256"
        }
      ],
      "stateMutability": "view",
      "type": "function"
    }
  ],
  "bytecode": "0x608060405234801561001057600080fd5b50336000806101000a81548173ffffffffffffffffffffffffffffffffffffffff021916908373ffffffffffffffffffffffffffffffffffffffff160217905550610a93806100606000396000f3fe608060405234801561001057600080fd5b506004361061004c5760003560e01c8063075461721461005157806340c10f191461006f578063ae3425821461008b578063f8b2cb4f146100a7575b600080fd5b6100596100d7565b6040516100669190610588565b60405180910390f35b6100896004803603810190610084919061060a565b6100fb565b005b6100a560048036038101906100a0919061064a565b61023e565b005b6100c160048036038101906100bc919061069d565b61043a565b6040516100ce91906106d9565b60405180910390f35b60008054906101000a900473ffffffffffffffffffffffffffffffffffffffff1681565b60008054906101000a900473ffffffffffffffffffffffffffffffffffffffff1673ffffffffffffffffffffffffffffffffffffffff163373ffffffffffffffffffffffffffffffffffffffff1614610189576040517f08c379a000000000000000000000000000000000000000000000000000000000815260040161018090610751565b60405180910390fd5b789f4f2726179a224501d762422c946590d9100000000000000081106101e4576040517f08c379a00000000000000000000000000000000000000000000000000000000081526004016101db906107bd565b60405180910390fd5b80600160008473ffffffffffffffffffffffffffffffffffffffff1673ffffffffffffffffffffffffffffffffffffffff1681526020019081526020016000206000828254610233919061080c565b925050819055505050565b60008054906101000a900473ffffffffffffffffffffffffffffffffffffffff1673ffffffffffffffffffffffffffffffffffffffff163373ffffffffffffffffffffffffffffffffffffffff16146102cc576040517f08c379a00000000000000000000000000000000000000000000000000000000081526004016102c3906108d4565b60405180910390fd5b600160008373ffffffffffffffffffffffffffffffffffffffff1673ffffffffffffffffffffffffffffffffffffffff1681526020019081526020016000205481111561034e576040517f08c379a000000000000000000000000000000000000000000000000000000000815260040161034590610940565b60405180910390fd5b80600160008473ffffffffffffffffffffffffffffffffffffffff1673ffffffffffffffffffffffffffffffffffffffff168152602001908152602001600020600082825461039d9190610960565b9250508190555080600160008573ffffffffffffffffffffffffffffffffffffffff1673ffffffffffffffffffffffffffffffffffffffff16815260200190815260200160002060008282546103f3919061080c565b925050819055507f3990db2d31862302a685e8086b5755072a6e2b5b780af1ee81ece35ee3cd334582848360405161042d93929190610994565b60405180910390a1505050565b60008173ffffffffffffffffffffffffffffffffffffffff163373ffffffffffffffffffffffffffffffffffffffff1614806104c1575060008054906101000a900473ffffffffffffffffffffffffffffffffffffffff1673ffffffffffffffffffffffffffffffffffffffff163373ffffffffffffffffffffffffffffffffffffffff16145b610500576040517f08c379a00000000000000000000000000000000000000000000000000000000081526004016104f790610a3d565b60405180910390fd5b600160008373ffffffffffffffffffffffffffffffffffffffff1673ffffffffffffffffffffffffffffffffffffffff168152602001908152602001600020549050919050565b600073ffffffffffffffffffffffffffffffffffffffff82169050919050565b600061057282610547565b9050919050565b61058281610567565b82525050565b600060208201905061059d6000830184610579565b92915050565b600080fd5b6105b181610567565b81146105bc57600080fd5b50565b6000813590506105ce816105a8565b92915050565b6000819050919050565b6105e7816105d4565b81146105f257600080fd5b50565b600081359050610604816105de565b92915050565b60008060408385031215610621576106206105a3565b5b600061062f858286016105bf565b9250506020610640858286016105f5565b9150509250929050565b600080600060608486031215610663576106626105a3565b5b6000610671868287016105bf565b9350506020610682868287016105bf565b9250506040610693868287016105f5565b9150509250925092565b6000602082840312156106b3576106b26105a3565b5b60006106c1848285016105bf565b91505092915050565b6106d3816105d4565b82525050565b60006020820190506106ee60008301846106ca565b92915050565b600082825260208201905092915050565b7f53656e646572206973206e6f74206d696e746572000000000000000000000000600082015250565b600061073b6014836106f4565b915061074682610705565b602082019050919050565b6000602082019050818103600083015261076a8161072e565b9050919050565b7f416d6f756e74206973206e6f7420746f6f206269670000000000000000000000600082015250565b60006107a76015836106f4565b91506107b282610771565b602082019050919050565b600060208201905081810360008301526107d68161079a565b9050919050565b7f4e487b7100000000000000000000000000000000000000000000000000000000600052601160045260246000fd5b6000610817826105d4565b9150610822836105d4565b9250827fffffffffffffffffffffffffffffffffffffffffffffffffffffffffffffffff03821115610857576108566107dd565b5b828201905092915050565b7f4f6e6c79207468652062616e6b65722063616e207574686f72697a652074726160008201527f6e73666572730000000000000000000000000000000000000000000000000000602082015250565b60006108be6026836106f4565b91506108c982610862565b604082019050919050565b600060208201905081810360008301526108ed816108b1565b9050919050565b7f496e73756666696369656e742062616c616e63652e0000000000000000000000600082015250565b600061092a6015836106f4565b9150610935826108f4565b602082019050919050565b600060208201905081810360008301526109598161091d565b9050919050565b600061096b826105d4565b9150610976836105d4565b925082821015610989576109886107dd565b5b828203905092915050565b60006060820190506109a96000830186610579565b6109b66020830185610579565b6109c360408301846106ca565b949350505050565b7f596f752063616e6e6f742067657420612062616c616e6365206f6e20736f6d6560008201527f6f6e6520656c73652773206163636f756e740000000000000000000000000000602082015250565b6000610a276032836106f4565b9150610a32826109cb565b604082019050919050565b60006020820190508181036000830152610a5681610a1a565b905091905056fea26469706673582212206cff1fd77a2786d1a8c90f7261f8b2d62805819a92aaf7622e8da888ff4feb8964736f6c634300080b0033",
  "immutableReferences": {},
  "source": "pragma solidity ^0.8.11;\n\ncontract Bank {\n\taddress public minter;\n\n\tmapping(address => uint256) private balances;\n\n\tevent Sent(address from, address to, uint256 amount);\n\n\tconstructor() public {\n\t\tminter = msg.sender;\n\t}\n\n\tfunction mint(address receiver, uint256 amount) public {\n\t\trequire(msg.sender == minter, \"Sender is not minter\");\n\t\trequire((amount < 1e60), \"Amount is not too big\");\n\n\t\tbalances[receiver] += amount;\n\t}\n\n\t//0xa4f20384dac4380B7de2FE0fc59a4C38c59D72f5\n\tfunction sendMoney(\n\t\taddress receiver,\n\t\taddress sender,\n\t\tuint256 amount\n\t) public {\n\t\trequire(msg.sender == minter, \"Only the banker can uthorize transfers\");\n\t\trequire(amount <= balances[sender], \"Insufficient balance.\");\n\n\t\tbalances[sender] -= amount;\n\t\tbalances[receiver] += amount;\n\n\t\temit Sent(sender, receiver, amount);\n\t}\n\n\tfunction getBalance(address account) public view returns (uint256) {\n\t\trequire(\n\t\t\tmsg.sender == account || msg.sender == minter,\n\t\t\t\"You cannot get a balance on someone else's account\"\n\t\t);\n\t\treturn balances[account];\n\t}\n}\n",
  "sourcePath": "/Volumes/SSD EXTERNO/Luby/Blockchain/TaskManager/contracts/Bank.sol",
  "compiler": {
    "name": "solc",
    "version": "0.8.11+commit.d7f03943.Emscripten.clang"
  },
  "schemaVersion": "3.4.4",
  "updatedAt": "2022-02-21T21:50:24.347Z",
  "devdoc": {
    "kind": "dev",
    "methods": {},
    "version": 1
  },
  "userdoc": {
    "kind": "user",
    "methods": {},
    "version": 1
  }
}