{
  "contractName": "CrypToken",
  "abi": [
    {
      "inputs": [],
      "stateMutability": "nonpayable",
      "type": "constructor"
    },
    {
      "anonymous": false,
      "inputs": [
        {
          "indexed": false,
          "internalType": "uint256",
          "name": "amount",
          "type": "uint256"
        }
      ],
      "name": "Bought",
      "type": "event"
    },
    {
      "anonymous": false,
      "inputs": [
        {
          "indexed": false,
          "internalType": "uint256",
          "name": "amount",
          "type": "uint256"
        }
      ],
      "name": "Sold",
      "type": "event"
    },
    {
      "anonymous": false,
      "inputs": [
        {
          "indexed": true,
          "internalType": "address",
          "name": "from",
          "type": "address"
        },
        {
          "indexed": true,
          "internalType": "address",
          "name": "to",
          "type": "address"
        },
        {
          "indexed": false,
          "internalType": "uint256",
          "name": "value",
          "type": "uint256"
        }
      ],
      "name": "Transfer",
      "type": "event"
    },
    {
      "inputs": [],
      "name": "minter",
      "outputs": [
        {
          "internalType": "address",
          "name": "",
          "type": "address"
        }
      ],
      "stateMutability": "view",
      "type": "function"
    },
    {
      "inputs": [
        {
          "internalType": "address",
          "name": "",
          "type": "address"
        }
      ],
      "name": "ownedTokensBalance",
      "outputs": [
        {
          "internalType": "uint256",
          "name": "",
          "type": "uint256"
        }
      ],
      "stateMutability": "view",
      "type": "function"
    },
    {
      "inputs": [
        {
          "internalType": "uint256",
          "name": "",
          "type": "uint256"
        }
      ],
      "name": "tokenOwner",
      "outputs": [
        {
          "internalType": "address",
          "name": "",
          "type": "address"
        }
      ],
      "stateMutability": "view",
      "type": "function"
    },
    {
      "inputs": [
        {
          "internalType": "uint256",
          "name": "tokenId",
          "type": "uint256"
        }
      ],
      "name": "_exists",
      "outputs": [
        {
          "internalType": "bool",
          "name": "",
          "type": "bool"
        }
      ],
      "stateMutability": "view",
      "type": "function"
    },
    {
      "inputs": [
        {
          "internalType": "uint256",
          "name": "tokenId",
          "type": "uint256"
        }
      ],
      "name": "mint",
      "outputs": [],
      "stateMutability": "nonpayable",
      "type": "function"
    },
    {
      "inputs": [
        {
          "internalType": "address",
          "name": "account",
          "type": "address"
        }
      ],
      "name": "getBalance",
      "outputs": [
        {
          "internalType": "uint256",
          "name": "",
          "type": "uint256"
        }
      ],
      "stateMutability": "view",
      "type": "function"
    },
    {
      "inputs": [
        {
          "internalType": "address",
          "name": "receiver",
          "type": "address"
        },
        {
          "internalType": "uint256",
          "name": "numTokens",
          "type": "uint256"
        }
      ],
      "name": "transfer",
      "outputs": [
        {
          "internalType": "bool",
          "name": "",
          "type": "bool"
        }
      ],
      "stateMutability": "nonpayable",
      "type": "function"
    }
  ],
  "bytecode": "0x6080604052678ac7230489e8000060045534801561001c57600080fd5b50336000806101000a81548173ffffffffffffffffffffffffffffffffffffffff021916908373ffffffffffffffffffffffffffffffffffffffff160217905550600454600360003373ffffffffffffffffffffffffffffffffffffffff1673ffffffffffffffffffffffffffffffffffffffff16815260200190815260200160002081905550610bae806100b26000396000f3fe608060405234801561001057600080fd5b506004361061007d5760003560e01c8063a9059cbb1161005b578063a9059cbb146100ec578063b600fbd71461011c578063f8b2cb4f1461014c578063f8e76cc01461017c5761007d565b806307546172146100825780631caaa487146100a0578063a0712d68146100d0575b600080fd5b61008a6101ac565b604051610097919061078e565b60405180910390f35b6100ba60048036038101906100b591906107e4565b6101d0565b6040516100c7919061078e565b60405180910390f35b6100ea60048036038101906100e591906107e4565b610203565b005b6101066004803603810190610101919061083d565b610350565b6040516101139190610898565b60405180910390f35b610136600480360381019061013191906108b3565b61044c565b60405161014391906108ef565b60405180910390f35b610166600480360381019061016191906108b3565b610464565b60405161017391906108ef565b60405180910390f35b610196600480360381019061019191906107e4565b610571565b6040516101a39190610898565b60405180910390f35b60008054906101000a900473ffffffffffffffffffffffffffffffffffffffff1681565b60016020528060005260406000206000915054906101000a900473ffffffffffffffffffffffffffffffffffffffff1681565b61020c81610571565b1561024c576040517f08c379a000000000000000000000000000000000000000000000000000000000815260040161024390610967565b60405180910390fd5b60008054906101000a900473ffffffffffffffffffffffffffffffffffffffff1673ffffffffffffffffffffffffffffffffffffffff163373ffffffffffffffffffffffffffffffffffffffff16146102a457600080fd5b336001600083815260200190815260200160002060006101000a81548173ffffffffffffffffffffffffffffffffffffffff021916908373ffffffffffffffffffffffffffffffffffffffff1602179055506001600260003373ffffffffffffffffffffffffffffffffffffffff1673ffffffffffffffffffffffffffffffffffffffff168152602001908152602001600020600082825461034691906109b6565b9250508190555050565b6000600360003373ffffffffffffffffffffffffffffffffffffffff1673ffffffffffffffffffffffffffffffffffffffff1681526020019081526020016000205482111561039e57600080fd5b6103dd6040518060400160405280600881526020017f7265636569766572000000000000000000000000000000000000000000000000815250846105ef565b8273ffffffffffffffffffffffffffffffffffffffff163373ffffffffffffffffffffffffffffffffffffffff167fddf252ad1be2c89b69c2b068fc378daa952ba7f163c4a11628f55a4df523b3ef8460405161043a91906108ef565b60405180910390a36001905092915050565b60026020528060005260406000206000915090505481565b60008173ffffffffffffffffffffffffffffffffffffffff163373ffffffffffffffffffffffffffffffffffffffff1614806104eb575060008054906101000a900473ffffffffffffffffffffffffffffffffffffffff1673ffffffffffffffffffffffffffffffffffffffff163373ffffffffffffffffffffffffffffffffffffffff16145b61052a576040517f08c379a000000000000000000000000000000000000000000000000000000000815260040161052190610a7e565b60405180910390fd5b600360008373ffffffffffffffffffffffffffffffffffffffff1673ffffffffffffffffffffffffffffffffffffffff168152602001908152602001600020549050919050565b60006105b16040518060400160405280600581526020017f746573746500000000000000000000000000000000000000000000000000000081525061068b565b60006001600084815260200190815260200160002060009054906101000a900473ffffffffffffffffffffffffffffffffffffffff16905050919050565b6106878282604051602401610605929190610b26565b6040516020818303038152906040527f319af333000000000000000000000000000000000000000000000000000000007bffffffffffffffffffffffffffffffffffffffffffffffffffffffff19166020820180517bffffffffffffffffffffffffffffffffffffffffffffffffffffffff8381831617835250505050610724565b5050565b6107218160405160240161069f9190610b56565b6040516020818303038152906040527f41304fac000000000000000000000000000000000000000000000000000000007bffffffffffffffffffffffffffffffffffffffffffffffffffffffff19166020820180517bffffffffffffffffffffffffffffffffffffffffffffffffffffffff8381831617835250505050610724565b50565b60008151905060006a636f6e736f6c652e6c6f679050602083016000808483855afa5050505050565b600073ffffffffffffffffffffffffffffffffffffffff82169050919050565b60006107788261074d565b9050919050565b6107888161076d565b82525050565b60006020820190506107a3600083018461077f565b92915050565b600080fd5b6000819050919050565b6107c1816107ae565b81146107cc57600080fd5b50565b6000813590506107de816107b8565b92915050565b6000602082840312156107fa576107f96107a9565b5b6000610808848285016107cf565b91505092915050565b61081a8161076d565b811461082557600080fd5b50565b60008135905061083781610811565b92915050565b60008060408385031215610854576108536107a9565b5b600061086285828601610828565b9250506020610873858286016107cf565b9150509250929050565b60008115159050919050565b6108928161087d565b82525050565b60006020820190506108ad6000830184610889565b92915050565b6000602082840312156108c9576108c86107a9565b5b60006108d784828501610828565b91505092915050565b6108e9816107ae565b82525050565b600060208201905061090460008301846108e0565b92915050565b600082825260208201905092915050565b7f4572726f723a20546f6b656e206a612065786973746500000000000000000000600082015250565b600061095160168361090a565b915061095c8261091b565b602082019050919050565b6000602082019050818103600083015261098081610944565b9050919050565b7f4e487b7100000000000000000000000000000000000000000000000000000000600052601160045260246000fd5b60006109c1826107ae565b91506109cc836107ae565b9250827fffffffffffffffffffffffffffffffffffffffffffffffffffffffffffffffff03821115610a0157610a00610987565b5b828201905092915050565b7f596f752063616e6e6f742067657420612062616c616e6365206f6e20736f6d6560008201527f6f6e6520656c73652773206163636f756e740000000000000000000000000000602082015250565b6000610a6860328361090a565b9150610a7382610a0c565b604082019050919050565b60006020820190508181036000830152610a9781610a5b565b9050919050565b600081519050919050565b60005b83811015610ac7578082015181840152602081019050610aac565b83811115610ad6576000848401525b50505050565b6000601f19601f8301169050919050565b6000610af882610a9e565b610b02818561090a565b9350610b12818560208601610aa9565b610b1b81610adc565b840191505092915050565b60006040820190508181036000830152610b408185610aed565b9050610b4f602083018461077f565b9392505050565b60006020820190508181036000830152610b708184610aed565b90509291505056fea26469706673582212207bd6e1f34846a2496980697a09b47291bcbdab44b0e4cbc4adea9367c7ba049a64736f6c634300080b0033",
  "immutableReferences": {},
  "source": "pragma solidity ^0.8.11;\n\nimport \"hardhat/console.sol\";\n\ncontract CrypToken {\n\taddress public minter;\n\n\tmapping(uint256 => address) public tokenOwner;\n\n\tmapping(address => uint256) public ownedTokensBalance;\n\n\tmapping(address => uint256) private balances;\n\n\tevent Bought(uint256 amount);\n\tevent Sold(uint256 amount);\n\tevent Transfer(address indexed from, address indexed to, uint256 value);\n\n\tuint256 totalSupply_ = 10 ether;\n\n\tconstructor() {\n\t\tminter = msg.sender;\n\t\tbalances[msg.sender] = totalSupply_;\n\t}\n\n\tfunction _exists(uint256 tokenId) public view returns (bool) {\n\t\t// address owner = tokenOwner[tokenId];\n\t\t// return owner != address(0);\n\t\tconsole.log(\"teste\");\n\t\taddress owner = tokenOwner[tokenId];\n\t}\n\n\tfunction mint(uint256 tokenId) public {\n\t\trequire(!_exists(tokenId), \"Error: Token ja existe\");\n\t\trequire(msg.sender == minter);\n\n\t\ttokenOwner[tokenId] = msg.sender;\n\t\townedTokensBalance[msg.sender] += 1;\n\t}\n\n\tfunction getBalance(address account) public view returns (uint256) {\n\t\trequire(\n\t\t\tmsg.sender == account || msg.sender == minter,\n\t\t\t\"You cannot get a balance on someone else's account\"\n\t\t);\n\t\treturn balances[account];\n\t}\n\n\tfunction transfer(address receiver, uint256 numTokens)\n\t\tpublic\n\t\treturns (bool)\n\t{\n\t\trequire(numTokens <= balances[msg.sender]);\n\t\treceiver.call{ value: numTokens };\n\t\tconsole.log(\"receiver\", receiver);\n\t\t// balances[msg.sender] = balances[msg.sender] - numTokens;\n\t\t// balances[receiver] = balances[receiver] + numTokens;\n\n\t\temit Transfer(msg.sender, receiver, numTokens);\n\n\t\treturn true;\n\t}\n}\n",
  "sourcePath": "/Volumes/SSD EXTERNO/Luby/Blockchain/TaskManager/contracts/CryptoToken.sol",
  "compiler": {
    "name": "solc",
    "version": "0.8.11+commit.d7f03943.Emscripten.clang"
  },
  "schemaVersion": "3.4.4",
  "updatedAt": "2022-02-17T18:43:11.118Z",
  "devdoc": {
    "kind": "dev",
    "methods": {},
    "version": 1
  },
  "userdoc": {
    "kind": "user",
    "methods": {},
    "version": 1
  }
}