{
  "contractName": "ERC20",
  "abi": [
    {
      "inputs": [],
      "stateMutability": "nonpayable",
      "type": "constructor"
    },
    {
      "anonymous": false,
      "inputs": [
        {
          "indexed": true,
          "internalType": "address",
          "name": "_owner",
          "type": "address"
        },
        {
          "indexed": true,
          "internalType": "address",
          "name": "_spender",
          "type": "address"
        },
        {
          "indexed": false,
          "internalType": "uint256",
          "name": "_value",
          "type": "uint256"
        }
      ],
      "name": "Approval",
      "type": "event"
    },
    {
      "anonymous": false,
      "inputs": [
        {
          "indexed": true,
          "internalType": "address",
          "name": "_from",
          "type": "address"
        },
        {
          "indexed": true,
          "internalType": "address",
          "name": "_to",
          "type": "address"
        },
        {
          "indexed": false,
          "internalType": "uint256",
          "name": "_value",
          "type": "uint256"
        }
      ],
      "name": "Transfer",
      "type": "event"
    },
    {
      "inputs": [],
      "name": "address_contract",
      "outputs": [
        {
          "internalType": "address",
          "name": "",
          "type": "address"
        }
      ],
      "stateMutability": "view",
      "type": "function"
    },
    {
      "inputs": [
        {
          "internalType": "address",
          "name": "",
          "type": "address"
        },
        {
          "internalType": "address",
          "name": "",
          "type": "address"
        }
      ],
      "name": "allowed",
      "outputs": [
        {
          "internalType": "uint256",
          "name": "",
          "type": "uint256"
        }
      ],
      "stateMutability": "view",
      "type": "function"
    },
    {
      "inputs": [
        {
          "internalType": "address",
          "name": "",
          "type": "address"
        }
      ],
      "name": "balances",
      "outputs": [
        {
          "internalType": "uint256",
          "name": "",
          "type": "uint256"
        }
      ],
      "stateMutability": "view",
      "type": "function"
    },
    {
      "inputs": [],
      "name": "decimals",
      "outputs": [
        {
          "internalType": "uint8",
          "name": "",
          "type": "uint8"
        }
      ],
      "stateMutability": "view",
      "type": "function"
    },
    {
      "inputs": [],
      "name": "minter",
      "outputs": [
        {
          "internalType": "address",
          "name": "",
          "type": "address"
        }
      ],
      "stateMutability": "view",
      "type": "function"
    },
    {
      "inputs": [],
      "name": "name",
      "outputs": [
        {
          "internalType": "string",
          "name": "",
          "type": "string"
        }
      ],
      "stateMutability": "view",
      "type": "function"
    },
    {
      "inputs": [],
      "name": "symbol",
      "outputs": [
        {
          "internalType": "string",
          "name": "",
          "type": "string"
        }
      ],
      "stateMutability": "view",
      "type": "function"
    },
    {
      "inputs": [],
      "name": "totalSupply",
      "outputs": [
        {
          "internalType": "uint256",
          "name": "",
          "type": "uint256"
        }
      ],
      "stateMutability": "view",
      "type": "function"
    },
    {
      "inputs": [
        {
          "internalType": "address",
          "name": "_to",
          "type": "address"
        },
        {
          "internalType": "uint256",
          "name": "_value",
          "type": "uint256"
        }
      ],
      "name": "transfer",
      "outputs": [
        {
          "internalType": "bool",
          "name": "success",
          "type": "bool"
        }
      ],
      "stateMutability": "nonpayable",
      "type": "function"
    },
    {
      "inputs": [
        {
          "internalType": "address",
          "name": "_from",
          "type": "address"
        },
        {
          "internalType": "address",
          "name": "_to",
          "type": "address"
        },
        {
          "internalType": "uint256",
          "name": "_value",
          "type": "uint256"
        }
      ],
      "name": "transferFrom",
      "outputs": [
        {
          "internalType": "bool",
          "name": "success",
          "type": "bool"
        }
      ],
      "stateMutability": "nonpayable",
      "type": "function"
    },
    {
      "inputs": [
        {
          "internalType": "address",
          "name": "from",
          "type": "address"
        }
      ],
      "name": "getBalance",
      "outputs": [
        {
          "internalType": "uint256",
          "name": "",
          "type": "uint256"
        }
      ],
      "stateMutability": "view",
      "type": "function"
    },
    {
      "inputs": [
        {
          "internalType": "address",
          "name": "_owner",
          "type": "address"
        }
      ],
      "name": "balanceOf",
      "outputs": [
        {
          "internalType": "uint256",
          "name": "balance",
          "type": "uint256"
        }
      ],
      "stateMutability": "view",
      "type": "function"
    },
    {
      "inputs": [
        {
          "internalType": "uint256",
          "name": "_value",
          "type": "uint256"
        }
      ],
      "name": "approve",
      "outputs": [
        {
          "internalType": "bool",
          "name": "success",
          "type": "bool"
        }
      ],
      "stateMutability": "nonpayable",
      "type": "function"
    },
    {
      "inputs": [
        {
          "internalType": "address",
          "name": "_owner",
          "type": "address"
        }
      ],
      "name": "allowance",
      "outputs": [
        {
          "internalType": "uint256",
          "name": "remaining",
          "type": "uint256"
        }
      ],
      "stateMutability": "view",
      "type": "function"
    },
    {
      "inputs": [
        {
          "internalType": "address",
          "name": "account",
          "type": "address"
        },
        {
          "internalType": "uint256",
          "name": "amount",
          "type": "uint256"
        }
      ],
      "name": "mint",
      "outputs": [],
      "stateMutability": "nonpayable",
      "type": "function"
    }
  ],
  "bytecode": "0x60806040523480156200001157600080fd5b506040518060400160405280600881526020017f4c75627947616d65000000000000000000000000000000000000000000000000815250600390805190602001906200005f92919062000152565b506012600460006101000a81548160ff021916908360ff1602179055506040518060400160405280600381526020017f4c4243000000000000000000000000000000000000000000000000000000000081525060059080519060200190620000c992919062000152565b5033600660006101000a81548173ffffffffffffffffffffffffffffffffffffffff021916908373ffffffffffffffffffffffffffffffffffffffff16021790555030600760006101000a81548173ffffffffffffffffffffffffffffffffffffffff021916908373ffffffffffffffffffffffffffffffffffffffff16021790555062000267565b828054620001609062000231565b90600052602060002090601f016020900481019282620001845760008555620001d0565b82601f106200019f57805160ff1916838001178555620001d0565b82800160010185558215620001d0579182015b82811115620001cf578251825591602001919060010190620001b2565b5b509050620001df9190620001e3565b5090565b5b80821115620001fe576000816000905550600101620001e4565b5090565b7f4e487b7100000000000000000000000000000000000000000000000000000000600052602260045260246000fd5b600060028204905060018216806200024a57607f821691505b6020821081141562000261576200026062000202565b5b50919050565b6114a180620002776000396000f3fe608060405234801561001057600080fd5b50600436106100f55760003560e01c806340c10f191161009757806395d89b411161006657806395d89b411461029c578063a9059cbb146102ba578063b759f954146102ea578063f8b2cb4f1461031a576100f5565b806340c10f19146102025780635c6581651461021e57806370a082311461024e57806394eeb5f51461027e576100f5565b806323b872dd116100d357806323b872dd1461015457806327e235e314610184578063313ce567146101b45780633e5beab9146101d2576100f5565b806306fdde03146100fa578063075461721461011857806318160ddd14610136575b600080fd5b61010261034a565b60405161010f9190610eac565b60405180910390f35b6101206103d8565b60405161012d9190610f0f565b60405180910390f35b61013e6103fe565b60405161014b9190610f43565b60405180910390f35b61016e60048036038101906101699190610fbb565b610404565b60405161017b9190611029565b60405180910390f35b61019e60048036038101906101999190611044565b6106ea565b6040516101ab9190610f43565b60405180910390f35b6101bc610702565b6040516101c9919061108d565b60405180910390f35b6101ec60048036038101906101e79190611044565b610715565b6040516101f99190610f43565b60405180910390f35b61021c600480360381019061021791906110a8565b61079b565b005b610238600480360381019061023391906110e8565b6108e3565b6040516102459190610f43565b60405180910390f35b61026860048036038101906102639190611044565b610908565b6040516102759190610f43565b60405180910390f35b610286610950565b6040516102939190610f0f565b60405180910390f35b6102a4610976565b6040516102b19190610eac565b60405180910390f35b6102d460048036038101906102cf91906110a8565b610a04565b6040516102e19190611029565b60405180910390f35b61030460048036038101906102ff9190611128565b610c06565b6040516103119190611029565b60405180910390f35b610334600480360381019061032f9190611044565b610d19565b6040516103419190610f43565b60405180910390f35b6003805461035790611184565b80601f016020809104026020016040519081016040528092919081815260200182805461038390611184565b80156103d05780601f106103a5576101008083540402835291602001916103d0565b820191906000526020600020905b8154815290600101906020018083116103b357829003601f168201915b505050505081565b600660009054906101000a900473ffffffffffffffffffffffffffffffffffffffff1681565b60025481565b600080600160008673ffffffffffffffffffffffffffffffffffffffff1673ffffffffffffffffffffffffffffffffffffffff16815260200190815260200160002060008573ffffffffffffffffffffffffffffffffffffffff1673ffffffffffffffffffffffffffffffffffffffff168152602001908152602001600020549050826000808773ffffffffffffffffffffffffffffffffffffffff1673ffffffffffffffffffffffffffffffffffffffff16815260200190815260200160002054101580156104d45750828110155b610513576040517f08c379a000000000000000000000000000000000000000000000000000000000815260040161050a90611228565b60405180910390fd5b826000808673ffffffffffffffffffffffffffffffffffffffff1673ffffffffffffffffffffffffffffffffffffffff16815260200190815260200160002060008282546105619190611277565b92505081905550826000808773ffffffffffffffffffffffffffffffffffffffff1673ffffffffffffffffffffffffffffffffffffffff16815260200190815260200160002060008282546105b691906112cd565b925050819055507fffffffffffffffffffffffffffffffffffffffffffffffffffffffffffffffff8110156106795782600160008773ffffffffffffffffffffffffffffffffffffffff1673ffffffffffffffffffffffffffffffffffffffff16815260200190815260200160002060008673ffffffffffffffffffffffffffffffffffffffff1673ffffffffffffffffffffffffffffffffffffffff168152602001908152602001600020600082825461067191906112cd565b925050819055505b8373ffffffffffffffffffffffffffffffffffffffff168573ffffffffffffffffffffffffffffffffffffffff167fddf252ad1be2c89b69c2b068fc378daa952ba7f163c4a11628f55a4df523b3ef856040516106d69190610f43565b60405180910390a360019150509392505050565b60006020528060005260406000206000915090505481565b600460009054906101000a900460ff1681565b6000600160008373ffffffffffffffffffffffffffffffffffffffff1673ffffffffffffffffffffffffffffffffffffffff16815260200190815260200160002060003073ffffffffffffffffffffffffffffffffffffffff1673ffffffffffffffffffffffffffffffffffffffff168152602001908152602001600020549050919050565b600073ffffffffffffffffffffffffffffffffffffffff168273ffffffffffffffffffffffffffffffffffffffff16141561080b576040517f08c379a00000000000000000000000000000000000000000000000000000000081526004016108029061134d565b60405180910390fd5b806002600082825461081d9190611277565b92505081905550806000808473ffffffffffffffffffffffffffffffffffffffff1673ffffffffffffffffffffffffffffffffffffffff16815260200190815260200160002060008282546108729190611277565b925050819055508173ffffffffffffffffffffffffffffffffffffffff16600073ffffffffffffffffffffffffffffffffffffffff167fddf252ad1be2c89b69c2b068fc378daa952ba7f163c4a11628f55a4df523b3ef836040516108d79190610f43565b60405180910390a35050565b6001602052816000526040600020602052806000526040600020600091509150505481565b60008060008373ffffffffffffffffffffffffffffffffffffffff1673ffffffffffffffffffffffffffffffffffffffff168152602001908152602001600020549050919050565b600760009054906101000a900473ffffffffffffffffffffffffffffffffffffffff1681565b6005805461098390611184565b80601f01602080910402602001604051908101604052809291908181526020018280546109af90611184565b80156109fc5780601f106109d1576101008083540402835291602001916109fc565b820191906000526020600020905b8154815290600101906020018083116109df57829003601f168201915b505050505081565b600081600080600760009054906101000a900473ffffffffffffffffffffffffffffffffffffffff1673ffffffffffffffffffffffffffffffffffffffff1673ffffffffffffffffffffffffffffffffffffffff168152602001908152602001600020541015610aa9576040517f08c379a0000000000000000000000000000000000000000000000000000000008152600401610aa0906113df565b60405180910390fd5b81600080600760009054906101000a900473ffffffffffffffffffffffffffffffffffffffff1673ffffffffffffffffffffffffffffffffffffffff1673ffffffffffffffffffffffffffffffffffffffff1681526020019081526020016000206000828254610b1991906112cd565b92505081905550816000808573ffffffffffffffffffffffffffffffffffffffff1673ffffffffffffffffffffffffffffffffffffffff1681526020019081526020016000206000828254610b6e9190611277565b925050819055508273ffffffffffffffffffffffffffffffffffffffff16600760009054906101000a900473ffffffffffffffffffffffffffffffffffffffff1673ffffffffffffffffffffffffffffffffffffffff167fddf252ad1be2c89b69c2b068fc378daa952ba7f163c4a11628f55a4df523b3ef84604051610bf49190610f43565b60405180910390a36001905092915050565b600081600160003373ffffffffffffffffffffffffffffffffffffffff1673ffffffffffffffffffffffffffffffffffffffff16815260200190815260200160002060003073ffffffffffffffffffffffffffffffffffffffff1673ffffffffffffffffffffffffffffffffffffffff16815260200190815260200160002081905550600660009054906101000a900473ffffffffffffffffffffffffffffffffffffffff1673ffffffffffffffffffffffffffffffffffffffff163373ffffffffffffffffffffffffffffffffffffffff167f8c5be1e5ebec7d5bd14f71427d1e84f3dd0314c0f7b2291e5b200ac8c7c3b92584604051610d089190610f43565b60405180910390a360019050919050565b6000600660009054906101000a900473ffffffffffffffffffffffffffffffffffffffff1673ffffffffffffffffffffffffffffffffffffffff168273ffffffffffffffffffffffffffffffffffffffff1614610dab576040517f08c379a0000000000000000000000000000000000000000000000000000000008152600401610da29061144b565b60405180910390fd5b600080600760009054906101000a900473ffffffffffffffffffffffffffffffffffffffff1673ffffffffffffffffffffffffffffffffffffffff1673ffffffffffffffffffffffffffffffffffffffff168152602001908152602001600020549050919050565b600081519050919050565b600082825260208201905092915050565b60005b83811015610e4d578082015181840152602081019050610e32565b83811115610e5c576000848401525b50505050565b6000601f19601f8301169050919050565b6000610e7e82610e13565b610e888185610e1e565b9350610e98818560208601610e2f565b610ea181610e62565b840191505092915050565b60006020820190508181036000830152610ec68184610e73565b905092915050565b600073ffffffffffffffffffffffffffffffffffffffff82169050919050565b6000610ef982610ece565b9050919050565b610f0981610eee565b82525050565b6000602082019050610f246000830184610f00565b92915050565b6000819050919050565b610f3d81610f2a565b82525050565b6000602082019050610f586000830184610f34565b92915050565b600080fd5b610f6c81610eee565b8114610f7757600080fd5b50565b600081359050610f8981610f63565b92915050565b610f9881610f2a565b8114610fa357600080fd5b50565b600081359050610fb581610f8f565b92915050565b600080600060608486031215610fd457610fd3610f5e565b5b6000610fe286828701610f7a565b9350506020610ff386828701610f7a565b925050604061100486828701610fa6565b9150509250925092565b60008115159050919050565b6110238161100e565b82525050565b600060208201905061103e600083018461101a565b92915050565b60006020828403121561105a57611059610f5e565b5b600061106884828501610f7a565b91505092915050565b600060ff82169050919050565b61108781611071565b82525050565b60006020820190506110a2600083018461107e565b92915050565b600080604083850312156110bf576110be610f5e565b5b60006110cd85828601610f7a565b92505060206110de85828601610fa6565b9150509250929050565b600080604083850312156110ff576110fe610f5e565b5b600061110d85828601610f7a565b925050602061111e85828601610f7a565b9150509250929050565b60006020828403121561113e5761113d610f5e565b5b600061114c84828501610fa6565b91505092915050565b7f4e487b7100000000000000000000000000000000000000000000000000000000600052602260045260246000fd5b6000600282049050600182168061119c57607f821691505b602082108114156111b0576111af611155565b5b50919050565b7f746f6b656e2062616c616e6365206f7220616c6c6f77616e6365206973206c6f60008201527f776572207468616e20616d6f756e742072657175657374656400000000000000602082015250565b6000611212603983610e1e565b915061121d826111b6565b604082019050919050565b6000602082019050818103600083015261124181611205565b9050919050565b7f4e487b7100000000000000000000000000000000000000000000000000000000600052601160045260246000fd5b600061128282610f2a565b915061128d83610f2a565b9250827fffffffffffffffffffffffffffffffffffffffffffffffffffffffffffffffff038211156112c2576112c1611248565b5b828201905092915050565b60006112d882610f2a565b91506112e383610f2a565b9250828210156112f6576112f5611248565b5b828203905092915050565b7f45524332303a206d696e7420746f20746865207a65726f206164647265737300600082015250565b6000611337601f83610e1e565b915061134282611301565b602082019050919050565b600060208201905081810360008301526113668161132a565b9050919050565b7f746f6b656e2062616c616e6365206973206c6f776572207468616e207468652060008201527f76616c7565207265717565737465640000000000000000000000000000000000602082015250565b60006113c9602f83610e1e565b91506113d48261136d565b604082019050919050565b600060208201905081810360008301526113f8816113bc565b9050919050565b7f4f6e6c79204f776e65722068617665207065726d697373696f6e732100000000600082015250565b6000611435601c83610e1e565b9150611440826113ff565b602082019050919050565b6000602082019050818103600083015261146481611428565b905091905056fea2646970667358221220aced0e39f40a8c71bce020524d8e1241df3b66e6e08c3fe220dbe304b4dcd57564736f6c634300080b0033",
  "immutableReferences": {},
  "source": "pragma solidity ^0.8.4;\n\n// https://eips.ethereum.org/EIPS/eip-20\n// SPDX-License-Identifier: MIT\nimport \"hardhat/console.sol\";\n\ninterface Token {\n\t/// @param _owner The address from which the balance will be retrieved\n\t/// @return balance the balance\n\t// function balanceOf(address _owner) view returns (uint256 balance);\n\n\t/// @notice send `_value` token to `_to` from `msg.sender`\n\t/// @param _to The address of the recipient\n\t/// @param _value The amount of token to be transferred\n\t/// @return success Whether the transfer was successful or not\n\tfunction transfer(address _to, uint256 _value)\n\t\texternal\n\t\treturns (bool success);\n\n\t/// @notice send `_value` token to `_to` from `_from` on the condition it is approved by `_from`\n\t/// @param _from The address of the sender\n\t/// @param _to The address of the recipient\n\t/// @param _value The amount of token to be transferred\n\t/// @return success Whether the transfer was successful or not\n\tfunction transferFrom(\n\t\taddress _from,\n\t\taddress _to,\n\t\tuint256 _value\n\t) external returns (bool success);\n\n\t// / @notice `msg.sender` approves `_addr` to spend `_value` tokens\n\t// / @param _spender The address of the account able to transfer the tokens\n\t/// @param _value The amount of wei to be approved for transfer\n\t/// @return success Whether the approval was successful or not\n\tfunction approve(uint256 _value) external returns (bool success);\n\n\t/// @param _owner The address of the account owning tokens\n\t/// @return remaining Amount of remaining tokens allowed to spent\n\tfunction allowance(address _owner)\n\t\texternal\n\t\tview\n\t\treturns (uint256 remaining);\n\n\tfunction mint(address sender, uint256 amount) external;\n\n\tfunction getBalance(address from) external view returns (uint256);\n\n\tfunction balanceOf(address _owner) external view returns (uint256 balance);\n\n\tevent Transfer(address indexed _from, address indexed _to, uint256 _value);\n\tevent Approval(\n\t\taddress indexed _owner,\n\t\taddress indexed _spender,\n\t\tuint256 _value\n\t);\n}\n\ncontract ERC20 is Token {\n\tuint256 private constant MAX_UINT256 = 2**256 - 1;\n\n\tmapping(address => uint256) public balances;\n\tmapping(address => mapping(address => uint256)) public allowed;\n\n\tuint256 public totalSupply;\n\t/*\n\tNOTE:\n\tThe following variables are OPTIONAL vanities. One does not have to include them.\n\tThey allow one to customise the token contract & in no way influences the core functionality.\n\tSome wallets/interfaces might not even bother to look at this information.\n\t*/\n\tstring public name; //fancy name: eg Simon Bucks\n\tuint8 public decimals; //How many decimals to show.\n\tstring public symbol; //An identifier: eg SBX\n\taddress public minter;\n\taddress public address_contract;\n\n\tconstructor() {\n\t\t// balances[msg.sender] = _initialAmount; // Give the creator all initial tokens\n\t\t// totalSupply = _initialAmount; // Update total supply\n\t\tname = \"LubyGame\"; // Set the name for display purposes\n\t\tdecimals = 18; // Amount of decimals for display purposes\n\t\tsymbol = \"LBC\"; // Set the symbol for display purposes\n\t\tminter = msg.sender;\n\t\taddress_contract = address(this);\n\t}\n\n\tfunction transfer(address _to, uint256 _value)\n\t\tpublic\n\t\toverride\n\t\treturns (bool success)\n\t{\n\t\trequire(\n\t\t\tbalances[address_contract] >= _value,\n\t\t\t\"token balance is lower than the value requested\"\n\t\t);\n\t\tbalances[address_contract] -= _value;\n\t\tbalances[_to] += _value;\n\n\t\t// balanceContract = balanceContract + _value;\n\n\t\temit Transfer(address_contract, _to, _value); //solhint-disable-line indent, no-unused-vars\n\t\treturn true;\n\t}\n\n\tfunction transferFrom(\n\t\taddress _from,\n\t\taddress _to,\n\t\tuint256 _value\n\t) public override returns (bool success) {\n\t\tuint256 allowance = allowed[_from][_to];\n\n\t\trequire(\n\t\t\tbalances[_from] >= _value && allowance >= _value,\n\t\t\t\"token balance or allowance is lower than amount requested\"\n\t\t);\n\n\t\tbalances[_to] += _value;\n\t\tbalances[_from] -= _value;\n\n\t\tif (allowance < MAX_UINT256) {\n\t\t\tallowed[_from][_to] -= _value;\n\t\t}\n\n\t\temit Transfer(_from, _to, _value); //solhint-disable-line indent, no-unused-vars\n\t\treturn true;\n\t}\n\n\tfunction getBalance(address from) public view override returns (uint256) {\n\t\trequire(from == minter, \"Only Owner have permissions!\");\n\t\treturn balances[address_contract];\n\t}\n\n\tfunction balanceOf(address _owner)\n\t\tpublic\n\t\tview\n\t\toverride\n\t\treturns (uint256 balance)\n\t{\n\t\treturn balances[_owner];\n\t}\n\n\tfunction approve(uint256 _value) public override returns (bool success) {\n\t\tallowed[msg.sender][address(this)] = _value;\n\t\temit Approval(msg.sender, minter, _value); //solhint-disable-line indent, no-unused-vars\n\t\treturn true;\n\t}\n\n\tfunction allowance(address _owner)\n\t\tpublic\n\t\tview\n\t\toverride\n\t\treturns (uint256 remaining)\n\t{\n\t\treturn allowed[_owner][address(this)];\n\t}\n\n\tfunction mint(address account, uint256 amount) public override {\n\t\trequire(account != address(0), \"ERC20: mint to the zero address\");\n\n\t\ttotalSupply += amount;\n\t\tbalances[account] += amount;\n\n\t\temit Transfer(address(0), account, amount);\n\t}\n}\n",
  "sourcePath": "/Volumes/SSD EXTERNO/Luby/Blockchain/TaskManager/contracts/LubyCoin/Bank.sol",
  "compiler": {
    "name": "solc",
    "version": "0.8.11+commit.d7f03943.Emscripten.clang"
  },
  "schemaVersion": "3.4.4",
  "updatedAt": "2022-02-22T20:17:14.493Z",
  "devdoc": {
    "kind": "dev",
    "methods": {
      "allowance(address)": {
        "params": {
          "_owner": "The address of the account owning tokens"
        },
        "returns": {
          "remaining": "Amount of remaining tokens allowed to spent"
        }
      },
      "approve(uint256)": {
        "params": {
          "_value": "The amount of wei to be approved for transfer"
        },
        "returns": {
          "success": "Whether the approval was successful or not"
        }
      },
      "transfer(address,uint256)": {
        "params": {
          "_to": "The address of the recipient",
          "_value": "The amount of token to be transferred"
        },
        "returns": {
          "success": "Whether the transfer was successful or not"
        }
      },
      "transferFrom(address,address,uint256)": {
        "params": {
          "_from": "The address of the sender",
          "_to": "The address of the recipient",
          "_value": "The amount of token to be transferred"
        },
        "returns": {
          "success": "Whether the transfer was successful or not"
        }
      }
    },
    "version": 1
  },
  "userdoc": {
    "kind": "user",
    "methods": {
      "transfer(address,uint256)": {
        "notice": "send `_value` token to `_to` from `msg.sender`"
      },
      "transferFrom(address,address,uint256)": {
        "notice": "send `_value` token to `_to` from `_from` on the condition it is approved by `_from`"
      }
    },
    "version": 1
  }
}