{
  "contractName": "NewNFT",
  "abi": [
    {
      "inputs": [],
      "stateMutability": "nonpayable",
      "type": "constructor"
    },
    {
      "anonymous": false,
      "inputs": [
        {
          "indexed": true,
          "internalType": "address",
          "name": "owner",
          "type": "address"
        },
        {
          "indexed": true,
          "internalType": "address",
          "name": "approved",
          "type": "address"
        },
        {
          "indexed": true,
          "internalType": "uint256",
          "name": "tokenId",
          "type": "uint256"
        }
      ],
      "name": "Approval",
      "type": "event"
    },
    {
      "anonymous": false,
      "inputs": [
        {
          "indexed": true,
          "internalType": "address",
          "name": "owner",
          "type": "address"
        },
        {
          "indexed": true,
          "internalType": "address",
          "name": "operator",
          "type": "address"
        },
        {
          "indexed": false,
          "internalType": "bool",
          "name": "approved",
          "type": "bool"
        }
      ],
      "name": "ApprovalForAll",
      "type": "event"
    },
    {
      "anonymous": false,
      "inputs": [
        {
          "indexed": true,
          "internalType": "address",
          "name": "previousOwner",
          "type": "address"
        },
        {
          "indexed": true,
          "internalType": "address",
          "name": "newOwner",
          "type": "address"
        }
      ],
      "name": "OwnershipTransferred",
      "type": "event"
    },
    {
      "anonymous": false,
      "inputs": [
        {
          "indexed": true,
          "internalType": "address",
          "name": "from",
          "type": "address"
        },
        {
          "indexed": true,
          "internalType": "address",
          "name": "to",
          "type": "address"
        },
        {
          "indexed": true,
          "internalType": "uint256",
          "name": "tokenId",
          "type": "uint256"
        }
      ],
      "name": "Transfer",
      "type": "event"
    },
    {
      "inputs": [],
      "name": "MAX_SUPPLY",
      "outputs": [
        {
          "internalType": "uint256",
          "name": "",
          "type": "uint256"
        }
      ],
      "stateMutability": "view",
      "type": "function"
    },
    {
      "inputs": [
        {
          "internalType": "address",
          "name": "to",
          "type": "address"
        },
        {
          "internalType": "uint256",
          "name": "tokenId",
          "type": "uint256"
        }
      ],
      "name": "approve",
      "outputs": [],
      "stateMutability": "nonpayable",
      "type": "function"
    },
    {
      "inputs": [
        {
          "internalType": "address",
          "name": "owner",
          "type": "address"
        }
      ],
      "name": "balanceOf",
      "outputs": [
        {
          "internalType": "uint256",
          "name": "",
          "type": "uint256"
        }
      ],
      "stateMutability": "view",
      "type": "function"
    },
    {
      "inputs": [],
      "name": "balances",
      "outputs": [
        {
          "internalType": "uint256",
          "name": "",
          "type": "uint256"
        }
      ],
      "stateMutability": "view",
      "type": "function"
    },
    {
      "inputs": [
        {
          "internalType": "uint256",
          "name": "tokenId",
          "type": "uint256"
        }
      ],
      "name": "getApproved",
      "outputs": [
        {
          "internalType": "address",
          "name": "",
          "type": "address"
        }
      ],
      "stateMutability": "view",
      "type": "function"
    },
    {
      "inputs": [
        {
          "internalType": "address",
          "name": "owner",
          "type": "address"
        },
        {
          "internalType": "address",
          "name": "operator",
          "type": "address"
        }
      ],
      "name": "isApprovedForAll",
      "outputs": [
        {
          "internalType": "bool",
          "name": "",
          "type": "bool"
        }
      ],
      "stateMutability": "view",
      "type": "function"
    },
    {
      "inputs": [],
      "name": "minRate",
      "outputs": [
        {
          "internalType": "uint256",
          "name": "",
          "type": "uint256"
        }
      ],
      "stateMutability": "view",
      "type": "function"
    },
    {
      "inputs": [],
      "name": "minter",
      "outputs": [
        {
          "internalType": "address",
          "name": "",
          "type": "address"
        }
      ],
      "stateMutability": "view",
      "type": "function"
    },
    {
      "inputs": [],
      "name": "name",
      "outputs": [
        {
          "internalType": "string",
          "name": "",
          "type": "string"
        }
      ],
      "stateMutability": "view",
      "type": "function"
    },
    {
      "inputs": [],
      "name": "owner",
      "outputs": [
        {
          "internalType": "address",
          "name": "",
          "type": "address"
        }
      ],
      "stateMutability": "view",
      "type": "function"
    },
    {
      "inputs": [
        {
          "internalType": "uint256",
          "name": "tokenId",
          "type": "uint256"
        }
      ],
      "name": "ownerOf",
      "outputs": [
        {
          "internalType": "address",
          "name": "",
          "type": "address"
        }
      ],
      "stateMutability": "view",
      "type": "function"
    },
    {
      "inputs": [],
      "name": "renounceOwnership",
      "outputs": [],
      "stateMutability": "nonpayable",
      "type": "function"
    },
    {
      "inputs": [
        {
          "internalType": "address",
          "name": "from",
          "type": "address"
        },
        {
          "internalType": "address",
          "name": "to",
          "type": "address"
        },
        {
          "internalType": "uint256",
          "name": "tokenId",
          "type": "uint256"
        }
      ],
      "name": "safeTransferFrom",
      "outputs": [],
      "stateMutability": "nonpayable",
      "type": "function"
    },
    {
      "inputs": [
        {
          "internalType": "address",
          "name": "from",
          "type": "address"
        },
        {
          "internalType": "address",
          "name": "to",
          "type": "address"
        },
        {
          "internalType": "uint256",
          "name": "tokenId",
          "type": "uint256"
        },
        {
          "internalType": "bytes",
          "name": "_data",
          "type": "bytes"
        }
      ],
      "name": "safeTransferFrom",
      "outputs": [],
      "stateMutability": "nonpayable",
      "type": "function"
    },
    {
      "inputs": [
        {
          "internalType": "address",
          "name": "operator",
          "type": "address"
        },
        {
          "internalType": "bool",
          "name": "approved",
          "type": "bool"
        }
      ],
      "name": "setApprovalForAll",
      "outputs": [],
      "stateMutability": "nonpayable",
      "type": "function"
    },
    {
      "inputs": [],
      "name": "symbol",
      "outputs": [
        {
          "internalType": "string",
          "name": "",
          "type": "string"
        }
      ],
      "stateMutability": "view",
      "type": "function"
    },
    {
      "inputs": [
        {
          "internalType": "uint256",
          "name": "index",
          "type": "uint256"
        }
      ],
      "name": "tokenByIndex",
      "outputs": [
        {
          "internalType": "uint256",
          "name": "",
          "type": "uint256"
        }
      ],
      "stateMutability": "view",
      "type": "function"
    },
    {
      "inputs": [
        {
          "internalType": "address",
          "name": "owner",
          "type": "address"
        },
        {
          "internalType": "uint256",
          "name": "index",
          "type": "uint256"
        }
      ],
      "name": "tokenOfOwnerByIndex",
      "outputs": [
        {
          "internalType": "uint256",
          "name": "",
          "type": "uint256"
        }
      ],
      "stateMutability": "view",
      "type": "function"
    },
    {
      "inputs": [
        {
          "internalType": "uint256",
          "name": "tokenId",
          "type": "uint256"
        }
      ],
      "name": "tokenURI",
      "outputs": [
        {
          "internalType": "string",
          "name": "",
          "type": "string"
        }
      ],
      "stateMutability": "view",
      "type": "function"
    },
    {
      "inputs": [],
      "name": "totalSupply",
      "outputs": [
        {
          "internalType": "uint256",
          "name": "",
          "type": "uint256"
        }
      ],
      "stateMutability": "view",
      "type": "function"
    },
    {
      "inputs": [
        {
          "internalType": "address",
          "name": "from",
          "type": "address"
        },
        {
          "internalType": "address",
          "name": "to",
          "type": "address"
        },
        {
          "internalType": "uint256",
          "name": "tokenId",
          "type": "uint256"
        }
      ],
      "name": "transferFrom",
      "outputs": [],
      "stateMutability": "nonpayable",
      "type": "function"
    },
    {
      "inputs": [
        {
          "internalType": "address",
          "name": "newOwner",
          "type": "address"
        }
      ],
      "name": "transferOwnership",
      "outputs": [],
      "stateMutability": "nonpayable",
      "type": "function"
    },
    {
      "inputs": [
        {
          "internalType": "address",
          "name": "to",
          "type": "address"
        }
      ],
      "name": "safeMint",
      "outputs": [],
      "stateMutability": "payable",
      "type": "function"
    },
    {
      "inputs": [
        {
          "internalType": "uint256",
          "name": "_tokenId",
          "type": "uint256"
        }
      ],
      "name": "uri",
      "outputs": [
        {
          "internalType": "string",
          "name": "",
          "type": "string"
        }
      ],
      "stateMutability": "view",
      "type": "function"
    },
    {
      "inputs": [
        {
          "internalType": "bytes4",
          "name": "interfaceId",
          "type": "bytes4"
        }
      ],
      "name": "supportsInterface",
      "outputs": [
        {
          "internalType": "bool",
          "name": "",
          "type": "bool"
        }
      ],
      "stateMutability": "view",
      "type": "function"
    },
    {
      "inputs": [],
      "name": "withdraw",
      "outputs": [],
      "stateMutability": "nonpayable",
      "type": "function"
    }
  ],
  "bytecode": "0x60806040526611c37937e08000600e55612710600f553480156200002257600080fd5b506040518060400160405280600d81526020017f4152204e4654204272617a696c000000000000000000000000000000000000008152506040518060400160405280600281526020017f41520000000000000000000000000000000000000000000000000000000000008152508160009080519060200190620000a7929190620001f8565b508060019080519060200190620000c0929190620001f8565b505050620000e3620000d76200012a60201b60201c565b6200013260201b60201c565b33600c60006101000a81548173ffffffffffffffffffffffffffffffffffffffff021916908373ffffffffffffffffffffffffffffffffffffffff1602179055506200030d565b600033905090565b6000600a60009054906101000a900473ffffffffffffffffffffffffffffffffffffffff16905081600a60006101000a81548173ffffffffffffffffffffffffffffffffffffffff021916908373ffffffffffffffffffffffffffffffffffffffff1602179055508173ffffffffffffffffffffffffffffffffffffffff168173ffffffffffffffffffffffffffffffffffffffff167f8be0079c531659141344cd1fd0a4f28419497f9722a3daafe3b4186f6b6457e060405160405180910390a35050565b8280546200020690620002d7565b90600052602060002090601f0160209004810192826200022a576000855562000276565b82601f106200024557805160ff191683800117855562000276565b8280016001018555821562000276579182015b828111156200027557825182559160200191906001019062000258565b5b50905062000285919062000289565b5090565b5b80821115620002a45760008160009055506001016200028a565b5090565b7f4e487b7100000000000000000000000000000000000000000000000000000000600052602260045260246000fd5b60006002820490506001821680620002f057607f821691505b60208210811415620003075762000306620002a8565b5b50919050565b6139ce806200031d6000396000f3fe6080604052600436106101815760003560e01c806342842e0e116100d15780638da5cb5b1161008a578063b88d4fde11610064578063b88d4fde14610577578063c87b56dd146105a0578063e985e9c5146105dd578063f2fde38b1461061a57610181565b80638da5cb5b146104f857806395d89b4114610523578063a22cb4651461054e57610181565b806342842e0e146103d65780634f6ccce7146103ff5780636352211e1461043c57806370a0823114610479578063715018a6146104b65780637bb98a68146104cd57610181565b80630e89341c1161013e5780632f745c59116101185780632f745c591461033b57806332cb6b0c146103785780633ccfd60b146103a357806340d097c3146103ba57610181565b80630e89341c146102aa57806318160ddd146102e757806323b872dd1461031257610181565b806301ffc9a71461018657806306fdde03146101c357806307546172146101ee578063081812fc14610219578063095ea7b3146102565780630cb604431461027f575b600080fd5b34801561019257600080fd5b506101ad60048036038101906101a891906124d1565b610643565b6040516101ba9190612519565b60405180910390f35b3480156101cf57600080fd5b506101d8610655565b6040516101e591906125cd565b60405180910390f35b3480156101fa57600080fd5b506102036106e7565b6040516102109190612630565b60405180910390f35b34801561022557600080fd5b50610240600480360381019061023b9190612681565b61070d565b60405161024d9190612630565b60405180910390f35b34801561026257600080fd5b5061027d600480360381019061027891906126da565b610792565b005b34801561028b57600080fd5b506102946108aa565b6040516102a19190612729565b60405180910390f35b3480156102b657600080fd5b506102d160048036038101906102cc9190612681565b6108b0565b6040516102de91906125cd565b60405180910390f35b3480156102f357600080fd5b506102fc6108e1565b6040516103099190612729565b60405180910390f35b34801561031e57600080fd5b5061033960048036038101906103349190612744565b6108ee565b005b34801561034757600080fd5b50610362600480360381019061035d91906126da565b61094e565b60405161036f9190612729565b60405180910390f35b34801561038457600080fd5b5061038d6109f3565b60405161039a9190612729565b60405180910390f35b3480156103af57600080fd5b506103b86109f9565b005b6103d460048036038101906103cf9190612797565b610b0c565b005b3480156103e257600080fd5b506103fd60048036038101906103f89190612744565b610be0565b005b34801561040b57600080fd5b5061042660048036038101906104219190612681565b610c00565b6040516104339190612729565b60405180910390f35b34801561044857600080fd5b50610463600480360381019061045e9190612681565b610c71565b6040516104709190612630565b60405180910390f35b34801561048557600080fd5b506104a0600480360381019061049b9190612797565b610d23565b6040516104ad9190612729565b60405180910390f35b3480156104c257600080fd5b506104cb610ddb565b005b3480156104d957600080fd5b506104e2610e63565b6040516104ef9190612729565b60405180910390f35b34801561050457600080fd5b5061050d610e69565b60405161051a9190612630565b60405180910390f35b34801561052f57600080fd5b50610538610e93565b60405161054591906125cd565b60405180910390f35b34801561055a57600080fd5b50610575600480360381019061057091906127f0565b610f25565b005b34801561058357600080fd5b5061059e60048036038101906105999190612965565b610f3b565b005b3480156105ac57600080fd5b506105c760048036038101906105c29190612681565b610f9d565b6040516105d491906125cd565b60405180910390f35b3480156105e957600080fd5b5061060460048036038101906105ff91906129e8565b611044565b6040516106119190612519565b60405180910390f35b34801561062657600080fd5b50610641600480360381019061063c9190612797565b6110d8565b005b600061064e826111d0565b9050919050565b60606000805461066490612a57565b80601f016020809104026020016040519081016040528092919081815260200182805461069090612a57565b80156106dd5780601f106106b2576101008083540402835291602001916106dd565b820191906000526020600020905b8154815290600101906020018083116106c057829003601f168201915b5050505050905090565b600c60009054906101000a900473ffffffffffffffffffffffffffffffffffffffff1681565b60006107188261124a565b610757576040517f08c379a000000000000000000000000000000000000000000000000000000000815260040161074e90612afb565b60405180910390fd5b6004600083815260200190815260200160002060009054906101000a900473ffffffffffffffffffffffffffffffffffffffff169050919050565b600061079d82610c71565b90508073ffffffffffffffffffffffffffffffffffffffff168373ffffffffffffffffffffffffffffffffffffffff16141561080e576040517f08c379a000000000000000000000000000000000000000000000000000000000815260040161080590612b8d565b60405180910390fd5b8073ffffffffffffffffffffffffffffffffffffffff1661082d6112b6565b73ffffffffffffffffffffffffffffffffffffffff16148061085c575061085b816108566112b6565b611044565b5b61089b576040517f08c379a000000000000000000000000000000000000000000000000000000000815260040161089290612c1f565b60405180910390fd5b6108a583836112be565b505050565b600e5481565b60606108bb82611377565b6040516020016108cb9190612d39565b6040516020818303038152906040529050919050565b6000600880549050905090565b6108ff6108f96112b6565b826114d8565b61093e576040517f08c379a000000000000000000000000000000000000000000000000000000000815260040161093590612dd8565b60405180910390fd5b6109498383836115b6565b505050565b600061095983610d23565b821061099a576040517f08c379a000000000000000000000000000000000000000000000000000000000815260040161099190612e6a565b60405180910390fd5b600660008473ffffffffffffffffffffffffffffffffffffffff1673ffffffffffffffffffffffffffffffffffffffff168152602001908152602001600020600083815260200190815260200160002054905092915050565b600f5481565b610a016112b6565b73ffffffffffffffffffffffffffffffffffffffff16610a1f610e69565b73ffffffffffffffffffffffffffffffffffffffff1614610a75576040517f08c379a0000000000000000000000000000000000000000000000000000000008152600401610a6c90612ed6565b60405180910390fd5b6000600d5411610aba576040517f08c379a0000000000000000000000000000000000000000000000000000000008152600401610ab190612f42565b60405180910390fd5b610ac2610e69565b73ffffffffffffffffffffffffffffffffffffffff166108fc600d549081150290604051600060405180830381858888f19350505050158015610b09573d6000803e3d6000fd5b50565b600f54610b176108e1565b10610b57576040517f08c379a0000000000000000000000000000000000000000000000000000000008152600401610b4e90612fae565b60405180910390fd5b600e54341015610b9c576040517f08c379a0000000000000000000000000000000000000000000000000000000008152600401610b939061301a565b60405180910390fd5b34600d54610baa9190613069565b600d81905550610bba600b61181d565b6000610bc6600b611833565b9050610bd28282611841565b610bdb816108b0565b505050565b610bfb83838360405180602001604052806000815250610f3b565b505050565b6000610c0a6108e1565b8210610c4b576040517f08c379a0000000000000000000000000000000000000000000000000000000008152600401610c4290613131565b60405180910390fd5b60088281548110610c5f57610c5e613151565b5b90600052602060002001549050919050565b6000806002600084815260200190815260200160002060009054906101000a900473ffffffffffffffffffffffffffffffffffffffff169050600073ffffffffffffffffffffffffffffffffffffffff168173ffffffffffffffffffffffffffffffffffffffff161415610d1a576040517f08c379a0000000000000000000000000000000000000000000000000000000008152600401610d11906131f2565b60405180910390fd5b80915050919050565b60008073ffffffffffffffffffffffffffffffffffffffff168273ffffffffffffffffffffffffffffffffffffffff161415610d94576040517f08c379a0000000000000000000000000000000000000000000000000000000008152600401610d8b90613284565b60405180910390fd5b600360008373ffffffffffffffffffffffffffffffffffffffff1673ffffffffffffffffffffffffffffffffffffffff168152602001908152602001600020549050919050565b610de36112b6565b73ffffffffffffffffffffffffffffffffffffffff16610e01610e69565b73ffffffffffffffffffffffffffffffffffffffff1614610e57576040517f08c379a0000000000000000000000000000000000000000000000000000000008152600401610e4e90612ed6565b60405180910390fd5b610e61600061185f565b565b600d5481565b6000600a60009054906101000a900473ffffffffffffffffffffffffffffffffffffffff16905090565b606060018054610ea290612a57565b80601f0160208091040260200160405190810160405280929190818152602001828054610ece90612a57565b8015610f1b5780601f10610ef057610100808354040283529160200191610f1b565b820191906000526020600020905b815481529060010190602001808311610efe57829003601f168201915b5050505050905090565b610f37610f306112b6565b8383611925565b5050565b610f4c610f466112b6565b836114d8565b610f8b576040517f08c379a0000000000000000000000000000000000000000000000000000000008152600401610f8290612dd8565b60405180910390fd5b610f9784848484611a92565b50505050565b6060610fa88261124a565b610fe7576040517f08c379a0000000000000000000000000000000000000000000000000000000008152600401610fde90613316565b60405180910390fd5b6000610ff1611aee565b90506000815111611011576040518060200160405280600081525061103c565b8061101b84611377565b60405160200161102c929190613336565b6040516020818303038152906040525b915050919050565b6000600560008473ffffffffffffffffffffffffffffffffffffffff1673ffffffffffffffffffffffffffffffffffffffff16815260200190815260200160002060008373ffffffffffffffffffffffffffffffffffffffff1673ffffffffffffffffffffffffffffffffffffffff16815260200190815260200160002060009054906101000a900460ff16905092915050565b6110e06112b6565b73ffffffffffffffffffffffffffffffffffffffff166110fe610e69565b73ffffffffffffffffffffffffffffffffffffffff1614611154576040517f08c379a000000000000000000000000000000000000000000000000000000000815260040161114b90612ed6565b60405180910390fd5b600073ffffffffffffffffffffffffffffffffffffffff168173ffffffffffffffffffffffffffffffffffffffff1614156111c4576040517f08c379a00000000000000000000000000000000000000000000000000000000081526004016111bb906133cc565b60405180910390fd5b6111cd8161185f565b50565b60007f780e9d63000000000000000000000000000000000000000000000000000000007bffffffffffffffffffffffffffffffffffffffffffffffffffffffff1916827bffffffffffffffffffffffffffffffffffffffffffffffffffffffff19161480611243575061124282611b05565b5b9050919050565b60008073ffffffffffffffffffffffffffffffffffffffff166002600084815260200190815260200160002060009054906101000a900473ffffffffffffffffffffffffffffffffffffffff1673ffffffffffffffffffffffffffffffffffffffff1614159050919050565b600033905090565b816004600083815260200190815260200160002060006101000a81548173ffffffffffffffffffffffffffffffffffffffff021916908373ffffffffffffffffffffffffffffffffffffffff160217905550808273ffffffffffffffffffffffffffffffffffffffff1661133183610c71565b73ffffffffffffffffffffffffffffffffffffffff167f8c5be1e5ebec7d5bd14f71427d1e84f3dd0314c0f7b2291e5b200ac8c7c3b92560405160405180910390a45050565b606060008214156113bf576040518060400160405280600181526020017f300000000000000000000000000000000000000000000000000000000000000081525090506114d3565b600082905060005b600082146113f15780806113da906133ec565b915050600a826113ea9190613464565b91506113c7565b60008167ffffffffffffffff81111561140d5761140c61283a565b5b6040519080825280601f01601f19166020018201604052801561143f5781602001600182028036833780820191505090505b5090505b600085146114cc576001826114589190613495565b9150600a8561146791906134c9565b60306114739190613069565b60f81b81838151811061148957611488613151565b5b60200101907effffffffffffffffffffffffffffffffffffffffffffffffffffffffffffff1916908160001a905350600a856114c59190613464565b9450611443565b8093505050505b919050565b60006114e38261124a565b611522576040517f08c379a00000000000000000000000000000000000000000000000000000000081526004016115199061356c565b60405180910390fd5b600061152d83610c71565b90508073ffffffffffffffffffffffffffffffffffffffff168473ffffffffffffffffffffffffffffffffffffffff16148061159c57508373ffffffffffffffffffffffffffffffffffffffff166115848461070d565b73ffffffffffffffffffffffffffffffffffffffff16145b806115ad57506115ac8185611044565b5b91505092915050565b8273ffffffffffffffffffffffffffffffffffffffff166115d682610c71565b73ffffffffffffffffffffffffffffffffffffffff161461162c576040517f08c379a0000000000000000000000000000000000000000000000000000000008152600401611623906135fe565b60405180910390fd5b600073ffffffffffffffffffffffffffffffffffffffff168273ffffffffffffffffffffffffffffffffffffffff16141561169c576040517f08c379a000000000000000000000000000000000000000000000000000000000815260040161169390613690565b60405180910390fd5b6116a7838383611be7565b6116b26000826112be565b6001600360008573ffffffffffffffffffffffffffffffffffffffff1673ffffffffffffffffffffffffffffffffffffffff16815260200190815260200160002060008282546117029190613495565b925050819055506001600360008473ffffffffffffffffffffffffffffffffffffffff1673ffffffffffffffffffffffffffffffffffffffff16815260200190815260200160002060008282546117599190613069565b92505081905550816002600083815260200190815260200160002060006101000a81548173ffffffffffffffffffffffffffffffffffffffff021916908373ffffffffffffffffffffffffffffffffffffffff160217905550808273ffffffffffffffffffffffffffffffffffffffff168473ffffffffffffffffffffffffffffffffffffffff167fddf252ad1be2c89b69c2b068fc378daa952ba7f163c4a11628f55a4df523b3ef60405160405180910390a4611818838383611bf7565b505050565b6001816000016000828254019250508190555050565b600081600001549050919050565b61185b828260405180602001604052806000815250611bfc565b5050565b6000600a60009054906101000a900473ffffffffffffffffffffffffffffffffffffffff16905081600a60006101000a81548173ffffffffffffffffffffffffffffffffffffffff021916908373ffffffffffffffffffffffffffffffffffffffff1602179055508173ffffffffffffffffffffffffffffffffffffffff168173ffffffffffffffffffffffffffffffffffffffff167f8be0079c531659141344cd1fd0a4f28419497f9722a3daafe3b4186f6b6457e060405160405180910390a35050565b8173ffffffffffffffffffffffffffffffffffffffff168373ffffffffffffffffffffffffffffffffffffffff161415611994576040517f08c379a000000000000000000000000000000000000000000000000000000000815260040161198b906136fc565b60405180910390fd5b80600560008573ffffffffffffffffffffffffffffffffffffffff1673ffffffffffffffffffffffffffffffffffffffff16815260200190815260200160002060008473ffffffffffffffffffffffffffffffffffffffff1673ffffffffffffffffffffffffffffffffffffffff16815260200190815260200160002060006101000a81548160ff0219169083151502179055508173ffffffffffffffffffffffffffffffffffffffff168373ffffffffffffffffffffffffffffffffffffffff167f17307eab39ab6107e8899845ad3d59bd9653f200f220920489ca2b5937696c3183604051611a859190612519565b60405180910390a3505050565b611a9d8484846115b6565b611aa984848484611c57565b611ae8576040517f08c379a0000000000000000000000000000000000000000000000000000000008152600401611adf9061378e565b60405180910390fd5b50505050565b606060405180602001604052806000815250905090565b60007f80ac58cd000000000000000000000000000000000000000000000000000000007bffffffffffffffffffffffffffffffffffffffffffffffffffffffff1916827bffffffffffffffffffffffffffffffffffffffffffffffffffffffff19161480611bd057507f5b5e139f000000000000000000000000000000000000000000000000000000007bffffffffffffffffffffffffffffffffffffffffffffffffffffffff1916827bffffffffffffffffffffffffffffffffffffffffffffffffffffffff1916145b80611be05750611bdf82611ddf565b5b9050919050565b611bf2838383611e49565b505050565b505050565b611c068383611f5d565b611c136000848484611c57565b611c52576040517f08c379a0000000000000000000000000000000000000000000000000000000008152600401611c499061378e565b60405180910390fd5b505050565b6000611c788473ffffffffffffffffffffffffffffffffffffffff16612137565b15611dd2578373ffffffffffffffffffffffffffffffffffffffff1663150b7a02611ca16112b6565b8786866040518563ffffffff1660e01b8152600401611cc39493929190613803565b6020604051808303816000875af1925050508015611cff57506040513d601f19601f82011682018060405250810190611cfc9190613864565b60015b611d82573d8060008114611d2f576040519150601f19603f3d011682016040523d82523d6000602084013e611d34565b606091505b50600081511415611d7a576040517f08c379a0000000000000000000000000000000000000000000000000000000008152600401611d719061378e565b60405180910390fd5b805181602001fd5b63150b7a0260e01b7bffffffffffffffffffffffffffffffffffffffffffffffffffffffff1916817bffffffffffffffffffffffffffffffffffffffffffffffffffffffff191614915050611dd7565b600190505b949350505050565b60007f01ffc9a7000000000000000000000000000000000000000000000000000000007bffffffffffffffffffffffffffffffffffffffffffffffffffffffff1916827bffffffffffffffffffffffffffffffffffffffffffffffffffffffff1916149050919050565b611e5483838361215a565b600073ffffffffffffffffffffffffffffffffffffffff168373ffffffffffffffffffffffffffffffffffffffff161415611e9757611e928161215f565b611ed6565b8173ffffffffffffffffffffffffffffffffffffffff168373ffffffffffffffffffffffffffffffffffffffff1614611ed557611ed483826121a8565b5b5b600073ffffffffffffffffffffffffffffffffffffffff168273ffffffffffffffffffffffffffffffffffffffff161415611f1957611f1481612315565b611f58565b8273ffffffffffffffffffffffffffffffffffffffff168273ffffffffffffffffffffffffffffffffffffffff1614611f5757611f5682826123e6565b5b5b505050565b600073ffffffffffffffffffffffffffffffffffffffff168273ffffffffffffffffffffffffffffffffffffffff161415611fcd576040517f08c379a0000000000000000000000000000000000000000000000000000000008152600401611fc4906138dd565b60405180910390fd5b611fd68161124a565b15612016576040517f08c379a000000000000000000000000000000000000000000000000000000000815260040161200d90613949565b60405180910390fd5b61202260008383611be7565b6001600360008473ffffffffffffffffffffffffffffffffffffffff1673ffffffffffffffffffffffffffffffffffffffff16815260200190815260200160002060008282546120729190613069565b92505081905550816002600083815260200190815260200160002060006101000a81548173ffffffffffffffffffffffffffffffffffffffff021916908373ffffffffffffffffffffffffffffffffffffffff160217905550808273ffffffffffffffffffffffffffffffffffffffff16600073ffffffffffffffffffffffffffffffffffffffff167fddf252ad1be2c89b69c2b068fc378daa952ba7f163c4a11628f55a4df523b3ef60405160405180910390a461213360008383611bf7565b5050565b6000808273ffffffffffffffffffffffffffffffffffffffff163b119050919050565b505050565b6008805490506009600083815260200190815260200160002081905550600881908060018154018082558091505060019003906000526020600020016000909190919091505550565b600060016121b584610d23565b6121bf9190613495565b90506000600760008481526020019081526020016000205490508181146122a4576000600660008673ffffffffffffffffffffffffffffffffffffffff1673ffffffffffffffffffffffffffffffffffffffff168152602001908152602001600020600084815260200190815260200160002054905080600660008773ffffffffffffffffffffffffffffffffffffffff1673ffffffffffffffffffffffffffffffffffffffff168152602001908152602001600020600084815260200190815260200160002081905550816007600083815260200190815260200160002081905550505b6007600084815260200190815260200160002060009055600660008573ffffffffffffffffffffffffffffffffffffffff1673ffffffffffffffffffffffffffffffffffffffff16815260200190815260200160002060008381526020019081526020016000206000905550505050565b600060016008805490506123299190613495565b905060006009600084815260200190815260200160002054905060006008838154811061235957612358613151565b5b90600052602060002001549050806008838154811061237b5761237a613151565b5b9060005260206000200181905550816009600083815260200190815260200160002081905550600960008581526020019081526020016000206000905560088054806123ca576123c9613969565b5b6001900381819060005260206000200160009055905550505050565b60006123f183610d23565b905081600660008573ffffffffffffffffffffffffffffffffffffffff1673ffffffffffffffffffffffffffffffffffffffff168152602001908152602001600020600083815260200190815260200160002081905550806007600084815260200190815260200160002081905550505050565b6000604051905090565b600080fd5b600080fd5b60007fffffffff0000000000000000000000000000000000000000000000000000000082169050919050565b6124ae81612479565b81146124b957600080fd5b50565b6000813590506124cb816124a5565b92915050565b6000602082840312156124e7576124e661246f565b5b60006124f5848285016124bc565b91505092915050565b60008115159050919050565b612513816124fe565b82525050565b600060208201905061252e600083018461250a565b92915050565b600081519050919050565b600082825260208201905092915050565b60005b8381101561256e578082015181840152602081019050612553565b8381111561257d576000848401525b50505050565b6000601f19601f8301169050919050565b600061259f82612534565b6125a9818561253f565b93506125b9818560208601612550565b6125c281612583565b840191505092915050565b600060208201905081810360008301526125e78184612594565b905092915050565b600073ffffffffffffffffffffffffffffffffffffffff82169050919050565b600061261a826125ef565b9050919050565b61262a8161260f565b82525050565b60006020820190506126456000830184612621565b92915050565b6000819050919050565b61265e8161264b565b811461266957600080fd5b50565b60008135905061267b81612655565b92915050565b6000602082840312156126975761269661246f565b5b60006126a58482850161266c565b91505092915050565b6126b78161260f565b81146126c257600080fd5b50565b6000813590506126d4816126ae565b92915050565b600080604083850312156126f1576126f061246f565b5b60006126ff858286016126c5565b92505060206127108582860161266c565b9150509250929050565b6127238161264b565b82525050565b600060208201905061273e600083018461271a565b92915050565b60008060006060848603121561275d5761275c61246f565b5b600061276b868287016126c5565b935050602061277c868287016126c5565b925050604061278d8682870161266c565b9150509250925092565b6000602082840312156127ad576127ac61246f565b5b60006127bb848285016126c5565b91505092915050565b6127cd816124fe565b81146127d857600080fd5b50565b6000813590506127ea816127c4565b92915050565b600080604083850312156128075761280661246f565b5b6000612815858286016126c5565b9250506020612826858286016127db565b9150509250929050565b600080fd5b600080fd5b7f4e487b7100000000000000000000000000000000000000000000000000000000600052604160045260246000fd5b61287282612583565b810181811067ffffffffffffffff821117156128915761289061283a565b5b80604052505050565b60006128a4612465565b90506128b08282612869565b919050565b600067ffffffffffffffff8211156128d0576128cf61283a565b5b6128d982612583565b9050602081019050919050565b82818337600083830152505050565b6000612908612903846128b5565b61289a565b90508281526020810184848401111561292457612923612835565b5b61292f8482856128e6565b509392505050565b600082601f83011261294c5761294b612830565b5b813561295c8482602086016128f5565b91505092915050565b6000806000806080858703121561297f5761297e61246f565b5b600061298d878288016126c5565b945050602061299e878288016126c5565b93505060406129af8782880161266c565b925050606085013567ffffffffffffffff8111156129d0576129cf612474565b5b6129dc87828801612937565b91505092959194509250565b600080604083850312156129ff576129fe61246f565b5b6000612a0d858286016126c5565b9250506020612a1e858286016126c5565b9150509250929050565b7f4e487b7100000000000000000000000000000000000000000000000000000000600052602260045260246000fd5b60006002820490506001821680612a6f57607f821691505b60208210811415612a8357612a82612a28565b5b50919050565b7f4552433732313a20617070726f76656420717565727920666f72206e6f6e657860008201527f697374656e7420746f6b656e0000000000000000000000000000000000000000602082015250565b6000612ae5602c8361253f565b9150612af082612a89565b604082019050919050565b60006020820190508181036000830152612b1481612ad8565b9050919050565b7f4552433732313a20617070726f76616c20746f2063757272656e74206f776e6560008201527f7200000000000000000000000000000000000000000000000000000000000000602082015250565b6000612b7760218361253f565b9150612b8282612b1b565b604082019050919050565b60006020820190508181036000830152612ba681612b6a565b9050919050565b7f4552433732313a20617070726f76652063616c6c6572206973206e6f74206f7760008201527f6e6572206e6f7220617070726f76656420666f7220616c6c0000000000000000602082015250565b6000612c0960388361253f565b9150612c1482612bad565b604082019050919050565b60006020820190508181036000830152612c3881612bfc565b9050919050565b600081905092915050565b7f697066733a2f2f516d616364717736715564517365333958474465366e32343860008201527f6e5953384c784e7234687447654565756b665532512f00000000000000000000602082015250565b6000612ca6603683612c3f565b9150612cb182612c4a565b603682019050919050565b6000612cc782612534565b612cd18185612c3f565b9350612ce1818560208601612550565b80840191505092915050565b7f2e6a736f6e000000000000000000000000000000000000000000000000000000600082015250565b6000612d23600583612c3f565b9150612d2e82612ced565b600582019050919050565b6000612d4482612c99565b9150612d508284612cbc565b9150612d5b82612d16565b915081905092915050565b7f4552433732313a207472616e736665722063616c6c6572206973206e6f74206f60008201527f776e6572206e6f7220617070726f766564000000000000000000000000000000602082015250565b6000612dc260318361253f565b9150612dcd82612d66565b604082019050919050565b60006020820190508181036000830152612df181612db5565b9050919050565b7f455243373231456e756d657261626c653a206f776e657220696e646578206f7560008201527f74206f6620626f756e6473000000000000000000000000000000000000000000602082015250565b6000612e54602b8361253f565b9150612e5f82612df8565b604082019050919050565b60006020820190508181036000830152612e8381612e47565b9050919050565b7f4f776e61626c653a2063616c6c6572206973206e6f7420746865206f776e6572600082015250565b6000612ec060208361253f565b9150612ecb82612e8a565b602082019050919050565b60006020820190508181036000830152612eef81612eb3565b9050919050565b7f42616c616e636520697320300000000000000000000000000000000000000000600082015250565b6000612f2c600c8361253f565b9150612f3782612ef6565b602082019050919050565b60006020820190508181036000830152612f5b81612f1f565b9050919050565b7f43616e2774206d696e206d6f72652e0000000000000000000000000000000000600082015250565b6000612f98600f8361253f565b9150612fa382612f62565b602082019050919050565b60006020820190508181036000830152612fc781612f8b565b9050919050565b7f4e6f7420656e6f7567682065746865722073656e742e00000000000000000000600082015250565b600061300460168361253f565b915061300f82612fce565b602082019050919050565b6000602082019050818103600083015261303381612ff7565b9050919050565b7f4e487b7100000000000000000000000000000000000000000000000000000000600052601160045260246000fd5b60006130748261264b565b915061307f8361264b565b9250827fffffffffffffffffffffffffffffffffffffffffffffffffffffffffffffffff038211156130b4576130b361303a565b5b828201905092915050565b7f455243373231456e756d657261626c653a20676c6f62616c20696e646578206f60008201527f7574206f6620626f756e64730000000000000000000000000000000000000000602082015250565b600061311b602c8361253f565b9150613126826130bf565b604082019050919050565b6000602082019050818103600083015261314a8161310e565b9050919050565b7f4e487b7100000000000000000000000000000000000000000000000000000000600052603260045260246000fd5b7f4552433732313a206f776e657220717565727920666f72206e6f6e657869737460008201527f656e7420746f6b656e0000000000000000000000000000000000000000000000602082015250565b60006131dc60298361253f565b91506131e782613180565b604082019050919050565b6000602082019050818103600083015261320b816131cf565b9050919050565b7f4552433732313a2062616c616e636520717565727920666f7220746865207a6560008201527f726f206164647265737300000000000000000000000000000000000000000000602082015250565b600061326e602a8361253f565b915061327982613212565b604082019050919050565b6000602082019050818103600083015261329d81613261565b9050919050565b7f4552433732314d657461646174613a2055524920717565727920666f72206e6f60008201527f6e6578697374656e7420746f6b656e0000000000000000000000000000000000602082015250565b6000613300602f8361253f565b915061330b826132a4565b604082019050919050565b6000602082019050818103600083015261332f816132f3565b9050919050565b60006133428285612cbc565b915061334e8284612cbc565b91508190509392505050565b7f4f776e61626c653a206e6577206f776e657220697320746865207a65726f206160008201527f6464726573730000000000000000000000000000000000000000000000000000602082015250565b60006133b660268361253f565b91506133c18261335a565b604082019050919050565b600060208201905081810360008301526133e5816133a9565b9050919050565b60006133f78261264b565b91507fffffffffffffffffffffffffffffffffffffffffffffffffffffffffffffffff82141561342a5761342961303a565b5b600182019050919050565b7f4e487b7100000000000000000000000000000000000000000000000000000000600052601260045260246000fd5b600061346f8261264b565b915061347a8361264b565b92508261348a57613489613435565b5b828204905092915050565b60006134a08261264b565b91506134ab8361264b565b9250828210156134be576134bd61303a565b5b828203905092915050565b60006134d48261264b565b91506134df8361264b565b9250826134ef576134ee613435565b5b828206905092915050565b7f4552433732313a206f70657261746f7220717565727920666f72206e6f6e657860008201527f697374656e7420746f6b656e0000000000000000000000000000000000000000602082015250565b6000613556602c8361253f565b9150613561826134fa565b604082019050919050565b6000602082019050818103600083015261358581613549565b9050919050565b7f4552433732313a207472616e736665722066726f6d20696e636f72726563742060008201527f6f776e6572000000000000000000000000000000000000000000000000000000602082015250565b60006135e860258361253f565b91506135f38261358c565b604082019050919050565b60006020820190508181036000830152613617816135db565b9050919050565b7f4552433732313a207472616e7366657220746f20746865207a65726f2061646460008201527f7265737300000000000000000000000000000000000000000000000000000000602082015250565b600061367a60248361253f565b91506136858261361e565b604082019050919050565b600060208201905081810360008301526136a98161366d565b9050919050565b7f4552433732313a20617070726f766520746f2063616c6c657200000000000000600082015250565b60006136e660198361253f565b91506136f1826136b0565b602082019050919050565b60006020820190508181036000830152613715816136d9565b9050919050565b7f4552433732313a207472616e7366657220746f206e6f6e20455243373231526560008201527f63656976657220696d706c656d656e7465720000000000000000000000000000602082015250565b600061377860328361253f565b91506137838261371c565b604082019050919050565b600060208201905081810360008301526137a78161376b565b9050919050565b600081519050919050565b600082825260208201905092915050565b60006137d5826137ae565b6137df81856137b9565b93506137ef818560208601612550565b6137f881612583565b840191505092915050565b60006080820190506138186000830187612621565b6138256020830186612621565b613832604083018561271a565b818103606083015261384481846137ca565b905095945050505050565b60008151905061385e816124a5565b92915050565b60006020828403121561387a5761387961246f565b5b60006138888482850161384f565b91505092915050565b7f4552433732313a206d696e7420746f20746865207a65726f2061646472657373600082015250565b60006138c760208361253f565b91506138d282613891565b602082019050919050565b600060208201905081810360008301526138f6816138ba565b9050919050565b7f4552433732313a20746f6b656e20616c7265616479206d696e74656400000000600082015250565b6000613933601c8361253f565b915061393e826138fd565b602082019050919050565b6000602082019050818103600083015261396281613926565b9050919050565b7f4e487b7100000000000000000000000000000000000000000000000000000000600052603160045260246000fdfea26469706673582212204baf67c99c2e5da64e05dc5331ba16b400b51a850fc373a9c125caf573b9bdf364736f6c634300080b0033",
  "immutableReferences": {},
  "source": "pragma solidity ^0.8.4;\n\nimport \"@openzeppelin/contracts/utils/Counters.sol\";\nimport \"@openzeppelin/contracts/token/ERC721/ERC721.sol\";\nimport \"@openzeppelin/contracts/token/ERC721/extensions/ERC721Enumerable.sol\";\n\nimport \"@openzeppelin/contracts/access/Ownable.sol\";\n\ncontract NewNFT is ERC721, ERC721Enumerable, Ownable {\n\tusing Counters for Counters.Counter;\n\n\tCounters.Counter private _tokenIdCounter;\n\n\taddress public minter;\n\n\tuint256 public balances;\n\n\t// mapping(address => uint256) private balances;\n\n\tuint256 public minRate = 0.005 ether;\n\tuint256 public MAX_SUPPLY = 10000;\n\n\tconstructor() ERC721(\"AR NFT Brazil\", \"AR\") {\n\t\tminter = msg.sender;\n\t}\n\n\tfunction safeMint(address to) public payable {\n\t\trequire(totalSupply() < MAX_SUPPLY, \"Can't min more.\");\n\t\trequire(msg.value >= minRate, \"Not enough ether sent.\");\n\t\tbalances = balances + msg.value;\n\t\t_tokenIdCounter.increment();\n\t\tuint256 tokenId = _tokenIdCounter.current();\n\t\t_safeMint(to, tokenId);\n\t\turi(tokenId);\n\t}\n\n\tfunction uri(uint256 _tokenId) public view virtual returns (string memory) {\n\t\treturn\n\t\t\tstring(\n\t\t\t\tabi.encodePacked(\n\t\t\t\t\t\"ipfs://Qmacdqw6qUdQse39XGDe6n248nYS8LxNr4htGeEeukfU2Q/\",\n\t\t\t\t\tStrings.toString(_tokenId),\n\t\t\t\t\t\".json\"\n\t\t\t\t)\n\t\t\t);\n\t}\n\n\tfunction _beforeTokenTransfer(\n\t\taddress from,\n\t\taddress to,\n\t\tuint256 tokenId\n\t) internal override(ERC721, ERC721Enumerable) {\n\t\tsuper._beforeTokenTransfer(from, to, tokenId);\n\t}\n\n\tfunction supportsInterface(bytes4 interfaceId)\n\t\tpublic\n\t\tview\n\t\toverride(ERC721, ERC721Enumerable)\n\t\treturns (bool)\n\t{\n\t\treturn super.supportsInterface(interfaceId);\n\t}\n\n\tfunction withdraw() public onlyOwner {\n\t\trequire(balances > 0, \"Balance is 0\");\n\t\tpayable(owner()).transfer(balances);\n\t}\n}\n",
  "sourcePath": "/Volumes/SSD EXTERNO/Luby/Blockchain/TaskManager/contracts/NewNFT.sol",
  "compiler": {
    "name": "solc",
    "version": "0.8.11+commit.d7f03943.Emscripten.clang"
  },
  "schemaVersion": "3.4.4",
  "updatedAt": "2022-02-18T22:28:56.866Z",
  "devdoc": {
    "kind": "dev",
    "methods": {
      "approve(address,uint256)": {
        "details": "See {IERC721-approve}."
      },
      "balanceOf(address)": {
        "details": "See {IERC721-balanceOf}."
      },
      "getApproved(uint256)": {
        "details": "See {IERC721-getApproved}."
      },
      "isApprovedForAll(address,address)": {
        "details": "See {IERC721-isApprovedForAll}."
      },
      "name()": {
        "details": "See {IERC721Metadata-name}."
      },
      "owner()": {
        "details": "Returns the address of the current owner."
      },
      "ownerOf(uint256)": {
        "details": "See {IERC721-ownerOf}."
      },
      "renounceOwnership()": {
        "details": "Leaves the contract without owner. It will not be possible to call `onlyOwner` functions anymore. Can only be called by the current owner. NOTE: Renouncing ownership will leave the contract without an owner, thereby removing any functionality that is only available to the owner."
      },
      "safeTransferFrom(address,address,uint256)": {
        "details": "See {IERC721-safeTransferFrom}."
      },
      "safeTransferFrom(address,address,uint256,bytes)": {
        "details": "See {IERC721-safeTransferFrom}."
      },
      "setApprovalForAll(address,bool)": {
        "details": "See {IERC721-setApprovalForAll}."
      },
      "symbol()": {
        "details": "See {IERC721Metadata-symbol}."
      },
      "tokenByIndex(uint256)": {
        "details": "See {IERC721Enumerable-tokenByIndex}."
      },
      "tokenOfOwnerByIndex(address,uint256)": {
        "details": "See {IERC721Enumerable-tokenOfOwnerByIndex}."
      },
      "tokenURI(uint256)": {
        "details": "See {IERC721Metadata-tokenURI}."
      },
      "totalSupply()": {
        "details": "See {IERC721Enumerable-totalSupply}."
      },
      "transferFrom(address,address,uint256)": {
        "details": "See {IERC721-transferFrom}."
      },
      "transferOwnership(address)": {
        "details": "Transfers ownership of the contract to a new account (`newOwner`). Can only be called by the current owner."
      }
    },
    "version": 1
  },
  "userdoc": {
    "kind": "user",
    "methods": {},
    "version": 1
  }
}