{
  "contractName": "Teste",
  "abi": [
    {
      "inputs": [],
      "stateMutability": "nonpayable",
      "type": "constructor"
    },
    {
      "anonymous": false,
      "inputs": [
        {
          "indexed": true,
          "internalType": "address",
          "name": "from",
          "type": "address"
        },
        {
          "indexed": true,
          "internalType": "address",
          "name": "too",
          "type": "address"
        },
        {
          "indexed": false,
          "internalType": "uint256",
          "name": "value",
          "type": "uint256"
        }
      ],
      "name": "Transfer",
      "type": "event"
    },
    {
      "inputs": [],
      "name": "minter",
      "outputs": [
        {
          "internalType": "address",
          "name": "",
          "type": "address"
        }
      ],
      "stateMutability": "view",
      "type": "function",
      "constant": true
    },
    {
      "inputs": [],
      "name": "updateBalance",
      "outputs": [],
      "stateMutability": "nonpayable",
      "type": "function"
    },
    {
      "inputs": [
        {
          "internalType": "address",
          "name": "receiver",
          "type": "address"
        },
        {
          "internalType": "uint256",
          "name": "amount",
          "type": "uint256"
        }
      ],
      "name": "transfer",
      "outputs": [],
      "stateMutability": "nonpayable",
      "type": "function"
    }
  ],
  "bytecode": "0x608060405234801561001057600080fd5b50336000806101000a81548173ffffffffffffffffffffffffffffffffffffffff021916908373ffffffffffffffffffffffffffffffffffffffff1602179055506000600160003373ffffffffffffffffffffffffffffffffffffffff1673ffffffffffffffffffffffffffffffffffffffff16815260200190815260200160002081905550610497806100a56000396000f3fe608060405234801561001057600080fd5b50600436106100415760003560e01c80630754617214610046578063a9059cbb14610064578063a9559dd714610080575b600080fd5b61004e61008a565b60405161005b91906102ba565b60405180910390f35b61007e6004803603810190610079919061033c565b6100ae565b005b610088610175565b005b60008054906101000a900473ffffffffffffffffffffffffffffffffffffffff1681565b6100ec6040518060400160405280600581526020017f74657374650000000000000000000000000000000000000000000000000000008152506101b7565b8173ffffffffffffffffffffffffffffffffffffffff1660008054906101000a900473ffffffffffffffffffffffffffffffffffffffff1673ffffffffffffffffffffffffffffffffffffffff167fddf252ad1be2c89b69c2b068fc378daa952ba7f163c4a11628f55a4df523b3ef83604051610169919061038b565b60405180910390a35050565b600160003373ffffffffffffffffffffffffffffffffffffffff1673ffffffffffffffffffffffffffffffffffffffff16815260200190815260200160002050565b61024d816040516024016101cb919061043f565b6040516020818303038152906040527f41304fac000000000000000000000000000000000000000000000000000000007bffffffffffffffffffffffffffffffffffffffffffffffffffffffff19166020820180517bffffffffffffffffffffffffffffffffffffffffffffffffffffffff8381831617835250505050610250565b50565b60008151905060006a636f6e736f6c652e6c6f679050602083016000808483855afa5050505050565b600073ffffffffffffffffffffffffffffffffffffffff82169050919050565b60006102a482610279565b9050919050565b6102b481610299565b82525050565b60006020820190506102cf60008301846102ab565b92915050565b600080fd5b6102e381610299565b81146102ee57600080fd5b50565b600081359050610300816102da565b92915050565b6000819050919050565b61031981610306565b811461032457600080fd5b50565b60008135905061033681610310565b92915050565b60008060408385031215610353576103526102d5565b5b6000610361858286016102f1565b925050602061037285828601610327565b9150509250929050565b61038581610306565b82525050565b60006020820190506103a0600083018461037c565b92915050565b600081519050919050565b600082825260208201905092915050565b60005b838110156103e05780820151818401526020810190506103c5565b838111156103ef576000848401525b50505050565b6000601f19601f8301169050919050565b6000610411826103a6565b61041b81856103b1565b935061042b8185602086016103c2565b610434816103f5565b840191505092915050565b600060208201905081810360008301526104598184610406565b90509291505056fea2646970667358221220b94bce9c9edd07c1568debede94648954718e68198630e004b96037ecdef1bbb64736f6c634300080b0033",
  "immutableReferences": {},
  "source": "pragma solidity ^0.8.11;\n\nimport \"hardhat/console.sol\";\n\ncontract Teste {\n\taddress public minter;\n\n\tmapping(address => uint256) private balances;\n\n\tevent Transfer(address indexed from, address indexed too, uint256 value);\n\n\tconstructor() {\n\t\tminter = msg.sender;\n\t\tbalances[msg.sender] = 0;\n\t}\n\n\tfunction updateBalance() public {\n\t\tbalances[msg.sender];\n\n\t\t//   web3.eth.getBalance(account1, (err, bal) => {\n\t\t//   const balance = web3.utils.fromWei(bal, \"ether\");\n\t\t//   console.log(balance);\n\t\t// });\n\t}\n\n\tfunction transfer(address receiver, uint256 amount) public {\n\t\t// require(amount <= balances[msg.sender], \"Insuficient balances\");\n\n\t\treceiver.call{ value: amount };\n\t\tconsole.log(\"teste\");\n\n\t\temit Transfer(minter, receiver, amount);\n\t}\n}\n",
  "sourcePath": "/Volumes/SSD EXTERNO/Luby/Blockchain/TaskManager/contracts/Teste.sol",
  "compiler": {
    "name": "solc",
    "version": "0.8.11+commit.d7f03943.Emscripten.clang"
  },
  "schemaVersion": "3.4.4",
  "updatedAt": "2022-02-17T21:47:57.938Z",
  "networkType": "ethereum",
  "devdoc": {
    "kind": "dev",
    "methods": {},
    "version": 1
  },
  "userdoc": {
    "kind": "user",
    "methods": {},
    "version": 1
  }
}